{
	"contracts/4_Auction.sol": {
		"Auction": {
			"abi": [
				{
					"inputs": [],
					"stateMutability": "nonpayable",
					"type": "constructor"
				},
				{
					"anonymous": false,
					"inputs": [
						{
							"indexed": false,
							"internalType": "uint256",
							"name": "id",
							"type": "uint256"
						},
						{
							"indexed": false,
							"internalType": "string",
							"name": "name",
							"type": "string"
						},
						{
							"indexed": false,
							"internalType": "uint256",
							"name": "startingPrice",
							"type": "uint256"
						},
						{
							"indexed": false,
							"internalType": "uint256",
							"name": "endTime",
							"type": "uint256"
						}
					],
					"name": "AuctionCreated",
					"type": "event"
				},
				{
					"anonymous": false,
					"inputs": [
						{
							"indexed": false,
							"internalType": "uint256",
							"name": "id",
							"type": "uint256"
						},
						{
							"indexed": false,
							"internalType": "address",
							"name": "bidder",
							"type": "address"
						},
						{
							"indexed": false,
							"internalType": "uint256",
							"name": "amount",
							"type": "uint256"
						}
					],
					"name": "BidPlaced",
					"type": "event"
				},
				{
					"inputs": [
						{
							"internalType": "string",
							"name": "_name",
							"type": "string"
						},
						{
							"internalType": "string",
							"name": "_desc",
							"type": "string"
						},
						{
							"internalType": "uint256",
							"name": "_startingPrice",
							"type": "uint256"
						},
						{
							"internalType": "uint256",
							"name": "_bidIncrement",
							"type": "uint256"
						},
						{
							"internalType": "uint256",
							"name": "_duration",
							"type": "uint256"
						}
					],
					"name": "createAuction",
					"outputs": [],
					"stateMutability": "nonpayable",
					"type": "function"
				},
				{
					"inputs": [
						{
							"internalType": "uint256",
							"name": "_id",
							"type": "uint256"
						}
					],
					"name": "placeBid",
					"outputs": [],
					"stateMutability": "payable",
					"type": "function"
				},
				{
					"inputs": [
						{
							"internalType": "uint256",
							"name": "",
							"type": "uint256"
						}
					],
					"name": "products",
					"outputs": [
						{
							"internalType": "uint256",
							"name": "id",
							"type": "uint256"
						},
						{
							"internalType": "string",
							"name": "name",
							"type": "string"
						},
						{
							"internalType": "string",
							"name": "desc",
							"type": "string"
						},
						{
							"internalType": "uint256",
							"name": "startingPrice",
							"type": "uint256"
						},
						{
							"internalType": "address payable",
							"name": "owner",
							"type": "address"
						},
						{
							"internalType": "uint256",
							"name": "bidPrice",
							"type": "uint256"
						},
						{
							"internalType": "uint256",
							"name": "bidIncrement",
							"type": "uint256"
						},
						{
							"internalType": "address payable",
							"name": "highestBidder",
							"type": "address"
						},
						{
							"internalType": "uint256",
							"name": "highestBid",
							"type": "uint256"
						},
						{
							"internalType": "bool",
							"name": "status",
							"type": "bool"
						},
						{
							"internalType": "uint256",
							"name": "endTime",
							"type": "uint256"
						}
					],
					"stateMutability": "view",
					"type": "function"
				},
				{
					"inputs": [
						{
							"internalType": "address",
							"name": "",
							"type": "address"
						}
					],
					"name": "refunds",
					"outputs": [
						{
							"internalType": "uint256",
							"name": "",
							"type": "uint256"
						}
					],
					"stateMutability": "view",
					"type": "function"
				}
			],
			"devdoc": {
				"custom:dev-run-script": "./scripts/deploy_with_ethers.ts",
				"details": "Store & retrieve value in a variable",
				"kind": "dev",
				"methods": {},
				"title": "Auction",
				"version": 1
			},
			"evm": {
				"assembly": "    /* \"contracts/4_Auction.sol\":208:2463  contract Auction {... */\n  mstore(0x40, 0x80)\n    /* \"contracts/4_Auction.sol\":1157:1217  constructor () {... */\n  callvalue\n  dup1\n  iszero\n  tag_1\n  jumpi\n  0x00\n  dup1\n  revert\ntag_1:\n  pop\n    /* \"contracts/4_Auction.sol\":1199:1209  msg.sender */\n  caller\n    /* \"contracts/4_Auction.sol\":1183:1196  contractOwner */\n  0x00\n  dup1\n    /* \"contracts/4_Auction.sol\":1183:1209  contractOwner = msg.sender */\n  0x0100\n  exp\n  dup2\n  sload\n  dup2\n  0xffffffffffffffffffffffffffffffffffffffff\n  mul\n  not\n  and\n  swap1\n  dup4\n  0xffffffffffffffffffffffffffffffffffffffff\n  and\n  mul\n  or\n  swap1\n  sstore\n  pop\n    /* \"contracts/4_Auction.sol\":208:2463  contract Auction {... */\n  dataSize(sub_0)\n  dup1\n  dataOffset(sub_0)\n  0x00\n  codecopy\n  0x00\n  return\nstop\n\nsub_0: assembly {\n        /* \"contracts/4_Auction.sol\":208:2463  contract Auction {... */\n      mstore(0x40, 0x80)\n      jumpi(tag_1, lt(calldatasize, 0x04))\n      shr(0xe0, calldataload(0x00))\n      dup1\n      0x5800eafa\n      eq\n      tag_2\n      jumpi\n      dup1\n      0x7acc0b20\n      eq\n      tag_3\n      jumpi\n      dup1\n      0x9979ef45\n      eq\n      tag_4\n      jumpi\n      dup1\n      0xbc3da535\n      eq\n      tag_5\n      jumpi\n    tag_1:\n      0x00\n      dup1\n      revert\n        /* \"contracts/4_Auction.sol\":1225:1934  function createAuction(string memory _name, string memory _desc, uint _startingPrice, uint _bidIncrement, uint _duration) external {... */\n    tag_2:\n      callvalue\n      dup1\n      iszero\n      tag_6\n      jumpi\n      0x00\n      dup1\n      revert\n    tag_6:\n      pop\n      tag_7\n      0x04\n      dup1\n      calldatasize\n      sub\n      dup2\n      add\n      swap1\n      tag_8\n      swap2\n      swap1\n      tag_9\n      jump\t// in\n    tag_8:\n      tag_10\n      jump\t// in\n    tag_7:\n      stop\n        /* \"contracts/4_Auction.sol\":582:607  Product[] public products */\n    tag_3:\n      callvalue\n      dup1\n      iszero\n      tag_11\n      jumpi\n      0x00\n      dup1\n      revert\n    tag_11:\n      pop\n      tag_12\n      0x04\n      dup1\n      calldatasize\n      sub\n      dup2\n      add\n      swap1\n      tag_13\n      swap2\n      swap1\n      tag_14\n      jump\t// in\n    tag_13:\n      tag_15\n      jump\t// in\n    tag_12:\n      mload(0x40)\n      tag_16\n      swap12\n      swap11\n      swap10\n      swap9\n      swap8\n      swap7\n      swap6\n      swap5\n      swap4\n      swap3\n      swap2\n      swap1\n      tag_17\n      jump\t// in\n    tag_16:\n      mload(0x40)\n      dup1\n      swap2\n      sub\n      swap1\n      return\n        /* \"contracts/4_Auction.sol\":1942:2452  function placeBid(uint _id) external payable validateBid(_id, msg.value) {... */\n    tag_4:\n      tag_18\n      0x04\n      dup1\n      calldatasize\n      sub\n      dup2\n      add\n      swap1\n      tag_19\n      swap2\n      swap1\n      tag_14\n      jump\t// in\n    tag_19:\n      tag_20\n      jump\t// in\n    tag_18:\n      stop\n        /* \"contracts/4_Auction.sol\":614:653  mapping(address => uint) public refunds */\n    tag_5:\n      callvalue\n      dup1\n      iszero\n      tag_21\n      jumpi\n      0x00\n      dup1\n      revert\n    tag_21:\n      pop\n      tag_22\n      0x04\n      dup1\n      calldatasize\n      sub\n      dup2\n      add\n      swap1\n      tag_23\n      swap2\n      swap1\n      tag_24\n      jump\t// in\n    tag_23:\n      tag_25\n      jump\t// in\n    tag_22:\n      mload(0x40)\n      tag_26\n      swap2\n      swap1\n      tag_27\n      jump\t// in\n    tag_26:\n      mload(0x40)\n      dup1\n      swap2\n      sub\n      swap1\n      return\n        /* \"contracts/4_Auction.sol\":1225:1934  function createAuction(string memory _name, string memory _desc, uint _startingPrice, uint _bidIncrement, uint _duration) external {... */\n    tag_10:\n        /* \"contracts/4_Auction.sol\":1367:1375  products */\n      0x01\n        /* \"contracts/4_Auction.sol\":1381:1810  Product({... */\n      mload(0x40)\n      dup1\n      0x0160\n      add\n      0x40\n      mstore\n      dup1\n        /* \"contracts/4_Auction.sol\":1408:1416  products */\n      0x01\n        /* \"contracts/4_Auction.sol\":1408:1423  products.length */\n      dup1\n      sload\n      swap1\n      pop\n        /* \"contracts/4_Auction.sol\":1381:1810  Product({... */\n      dup2\n      mstore\n      0x20\n      add\n        /* \"contracts/4_Auction.sol\":1444:1449  _name */\n      dup8\n        /* \"contracts/4_Auction.sol\":1381:1810  Product({... */\n      dup2\n      mstore\n      0x20\n      add\n        /* \"contracts/4_Auction.sol\":1470:1475  _desc */\n      dup7\n        /* \"contracts/4_Auction.sol\":1381:1810  Product({... */\n      dup2\n      mstore\n      0x20\n      add\n        /* \"contracts/4_Auction.sol\":1505:1519  _startingPrice */\n      dup6\n        /* \"contracts/4_Auction.sol\":1381:1810  Product({... */\n      dup2\n      mstore\n      0x20\n      add\n        /* \"contracts/4_Auction.sol\":1549:1559  msg.sender */\n      caller\n        /* \"contracts/4_Auction.sol\":1381:1810  Product({... */\n      0xffffffffffffffffffffffffffffffffffffffff\n      and\n      dup2\n      mstore\n      0x20\n      add\n        /* \"contracts/4_Auction.sol\":1585:1599  _startingPrice */\n      dup6\n        /* \"contracts/4_Auction.sol\":1381:1810  Product({... */\n      dup2\n      mstore\n      0x20\n      add\n        /* \"contracts/4_Auction.sol\":1628:1641  _bidIncrement */\n      dup5\n        /* \"contracts/4_Auction.sol\":1381:1810  Product({... */\n      dup2\n      mstore\n      0x20\n      add\n        /* \"contracts/4_Auction.sol\":1687:1688  0 */\n      0x00\n        /* \"contracts/4_Auction.sol\":1381:1810  Product({... */\n      0xffffffffffffffffffffffffffffffffffffffff\n      and\n      dup2\n      mstore\n      0x20\n      add\n        /* \"contracts/4_Auction.sol\":1717:1718  0 */\n      0x00\n        /* \"contracts/4_Auction.sol\":1381:1810  Product({... */\n      dup2\n      mstore\n      0x20\n      add\n        /* \"contracts/4_Auction.sol\":1741:1745  true */\n      0x01\n        /* \"contracts/4_Auction.sol\":1381:1810  Product({... */\n      iszero\n      iszero\n      dup2\n      mstore\n      0x20\n      add\n        /* \"contracts/4_Auction.sol\":1787:1796  _duration */\n      dup4\n        /* \"contracts/4_Auction.sol\":1769:1784  block.timestamp */\n      timestamp\n        /* \"contracts/4_Auction.sol\":1769:1796  block.timestamp + _duration */\n      tag_29\n      swap2\n      swap1\n      tag_30\n      jump\t// in\n    tag_29:\n        /* \"contracts/4_Auction.sol\":1381:1810  Product({... */\n      dup2\n      mstore\n      pop\n        /* \"contracts/4_Auction.sol\":1367:1811  products.push(Product({... */\n      swap1\n      dup1\n      0x01\n      dup2\n      sload\n      add\n      dup1\n      dup3\n      sstore\n      dup1\n      swap2\n      pop\n      pop\n      0x01\n      swap1\n      sub\n      swap1\n      0x00\n      mstore\n      keccak256(0x00, 0x20)\n      swap1\n      0x0b\n      mul\n      add\n      0x00\n      swap1\n      swap2\n      swap1\n      swap2\n      swap1\n      swap2\n      pop\n      0x00\n      dup3\n      add\n      mload\n      dup2\n      0x00\n      add\n      sstore\n      0x20\n      dup3\n      add\n      mload\n      dup2\n      0x01\n      add\n      swap1\n      dup2\n      tag_32\n      swap2\n      swap1\n      tag_33\n      jump\t// in\n    tag_32:\n      pop\n      0x40\n      dup3\n      add\n      mload\n      dup2\n      0x02\n      add\n      swap1\n      dup2\n      tag_34\n      swap2\n      swap1\n      tag_33\n      jump\t// in\n    tag_34:\n      pop\n      0x60\n      dup3\n      add\n      mload\n      dup2\n      0x03\n      add\n      sstore\n      0x80\n      dup3\n      add\n      mload\n      dup2\n      0x04\n      add\n      exp(0x0100, 0x00)\n      dup2\n      sload\n      dup2\n      0xffffffffffffffffffffffffffffffffffffffff\n      mul\n      not\n      and\n      swap1\n      dup4\n      0xffffffffffffffffffffffffffffffffffffffff\n      and\n      mul\n      or\n      swap1\n      sstore\n      pop\n      0xa0\n      dup3\n      add\n      mload\n      dup2\n      0x05\n      add\n      sstore\n      0xc0\n      dup3\n      add\n      mload\n      dup2\n      0x06\n      add\n      sstore\n      0xe0\n      dup3\n      add\n      mload\n      dup2\n      0x07\n      add\n      exp(0x0100, 0x00)\n      dup2\n      sload\n      dup2\n      0xffffffffffffffffffffffffffffffffffffffff\n      mul\n      not\n      and\n      swap1\n      dup4\n      0xffffffffffffffffffffffffffffffffffffffff\n      and\n      mul\n      or\n      swap1\n      sstore\n      pop\n      0x0100\n      dup3\n      add\n      mload\n      dup2\n      0x08\n      add\n      sstore\n      0x0120\n      dup3\n      add\n      mload\n      dup2\n      0x09\n      add\n      exp(0x0100, 0x00)\n      dup2\n      sload\n      dup2\n      0xff\n      mul\n      not\n      and\n      swap1\n      dup4\n      iszero\n      iszero\n      mul\n      or\n      swap1\n      sstore\n      pop\n      0x0140\n      dup3\n      add\n      mload\n      dup2\n      0x0a\n      add\n      sstore\n      pop\n      pop\n        /* \"contracts/4_Auction.sol\":1829:1916  AuctionCreated(products.length - 1, _name, _startingPrice, block.timestamp + _duration) */\n      0x5bf34ed94988e5dcdc7d1faaa54eb1d3b55f45d5f11457e235afb21a8ebbe73c\n        /* \"contracts/4_Auction.sol\":1862:1863  1 */\n      0x01\n        /* \"contracts/4_Auction.sol\":1844:1852  products */\n      dup1\n        /* \"contracts/4_Auction.sol\":1844:1859  products.length */\n      dup1\n      sload\n      swap1\n      pop\n        /* \"contracts/4_Auction.sol\":1844:1863  products.length - 1 */\n      tag_35\n      swap2\n      swap1\n      tag_36\n      jump\t// in\n    tag_35:\n        /* \"contracts/4_Auction.sol\":1865:1870  _name */\n      dup7\n        /* \"contracts/4_Auction.sol\":1872:1886  _startingPrice */\n      dup6\n        /* \"contracts/4_Auction.sol\":1906:1915  _duration */\n      dup5\n        /* \"contracts/4_Auction.sol\":1888:1903  block.timestamp */\n      timestamp\n        /* \"contracts/4_Auction.sol\":1888:1915  block.timestamp + _duration */\n      tag_37\n      swap2\n      swap1\n      tag_30\n      jump\t// in\n    tag_37:\n        /* \"contracts/4_Auction.sol\":1829:1916  AuctionCreated(products.length - 1, _name, _startingPrice, block.timestamp + _duration) */\n      mload(0x40)\n      tag_38\n      swap5\n      swap4\n      swap3\n      swap2\n      swap1\n      tag_39\n      jump\t// in\n    tag_38:\n      mload(0x40)\n      dup1\n      swap2\n      sub\n      swap1\n      log1\n        /* \"contracts/4_Auction.sol\":1225:1934  function createAuction(string memory _name, string memory _desc, uint _startingPrice, uint _bidIncrement, uint _duration) external {... */\n      pop\n      pop\n      pop\n      pop\n      pop\n      jump\t// out\n        /* \"contracts/4_Auction.sol\":582:607  Product[] public products */\n    tag_15:\n      0x01\n      dup2\n      dup2\n      sload\n      dup2\n      lt\n      tag_40\n      jumpi\n      0x00\n      dup1\n      revert\n    tag_40:\n      swap1\n      0x00\n      mstore\n      keccak256(0x00, 0x20)\n      swap1\n      0x0b\n      mul\n      add\n      0x00\n      swap2\n      pop\n      swap1\n      pop\n      dup1\n      0x00\n      add\n      sload\n      swap1\n      dup1\n      0x01\n      add\n      dup1\n      sload\n      tag_42\n      swap1\n      tag_43\n      jump\t// in\n    tag_42:\n      dup1\n      0x1f\n      add\n      0x20\n      dup1\n      swap2\n      div\n      mul\n      0x20\n      add\n      mload(0x40)\n      swap1\n      dup2\n      add\n      0x40\n      mstore\n      dup1\n      swap3\n      swap2\n      swap1\n      dup2\n      dup2\n      mstore\n      0x20\n      add\n      dup3\n      dup1\n      sload\n      tag_44\n      swap1\n      tag_43\n      jump\t// in\n    tag_44:\n      dup1\n      iszero\n      tag_45\n      jumpi\n      dup1\n      0x1f\n      lt\n      tag_46\n      jumpi\n      0x0100\n      dup1\n      dup4\n      sload\n      div\n      mul\n      dup4\n      mstore\n      swap2\n      0x20\n      add\n      swap2\n      jump(tag_45)\n    tag_46:\n      dup3\n      add\n      swap2\n      swap1\n      0x00\n      mstore\n      keccak256(0x00, 0x20)\n      swap1\n    tag_47:\n      dup2\n      sload\n      dup2\n      mstore\n      swap1\n      0x01\n      add\n      swap1\n      0x20\n      add\n      dup1\n      dup4\n      gt\n      tag_47\n      jumpi\n      dup3\n      swap1\n      sub\n      0x1f\n      and\n      dup3\n      add\n      swap2\n    tag_45:\n      pop\n      pop\n      pop\n      pop\n      pop\n      swap1\n      dup1\n      0x02\n      add\n      dup1\n      sload\n      tag_48\n      swap1\n      tag_43\n      jump\t// in\n    tag_48:\n      dup1\n      0x1f\n      add\n      0x20\n      dup1\n      swap2\n      div\n      mul\n      0x20\n      add\n      mload(0x40)\n      swap1\n      dup2\n      add\n      0x40\n      mstore\n      dup1\n      swap3\n      swap2\n      swap1\n      dup2\n      dup2\n      mstore\n      0x20\n      add\n      dup3\n      dup1\n      sload\n      tag_49\n      swap1\n      tag_43\n      jump\t// in\n    tag_49:\n      dup1\n      iszero\n      tag_50\n      jumpi\n      dup1\n      0x1f\n      lt\n      tag_51\n      jumpi\n      0x0100\n      dup1\n      dup4\n      sload\n      div\n      mul\n      dup4\n      mstore\n      swap2\n      0x20\n      add\n      swap2\n      jump(tag_50)\n    tag_51:\n      dup3\n      add\n      swap2\n      swap1\n      0x00\n      mstore\n      keccak256(0x00, 0x20)\n      swap1\n    tag_52:\n      dup2\n      sload\n      dup2\n      mstore\n      swap1\n      0x01\n      add\n      swap1\n      0x20\n      add\n      dup1\n      dup4\n      gt\n      tag_52\n      jumpi\n      dup3\n      swap1\n      sub\n      0x1f\n      and\n      dup3\n      add\n      swap2\n    tag_50:\n      pop\n      pop\n      pop\n      pop\n      pop\n      swap1\n      dup1\n      0x03\n      add\n      sload\n      swap1\n      dup1\n      0x04\n      add\n      0x00\n      swap1\n      sload\n      swap1\n      0x0100\n      exp\n      swap1\n      div\n      0xffffffffffffffffffffffffffffffffffffffff\n      and\n      swap1\n      dup1\n      0x05\n      add\n      sload\n      swap1\n      dup1\n      0x06\n      add\n      sload\n      swap1\n      dup1\n      0x07\n      add\n      0x00\n      swap1\n      sload\n      swap1\n      0x0100\n      exp\n      swap1\n      div\n      0xffffffffffffffffffffffffffffffffffffffff\n      and\n      swap1\n      dup1\n      0x08\n      add\n      sload\n      swap1\n      dup1\n      0x09\n      add\n      0x00\n      swap1\n      sload\n      swap1\n      0x0100\n      exp\n      swap1\n      div\n      0xff\n      and\n      swap1\n      dup1\n      0x0a\n      add\n      sload\n      swap1\n      pop\n      dup12\n      jump\t// out\n        /* \"contracts/4_Auction.sol\":1942:2452  function placeBid(uint _id) external payable validateBid(_id, msg.value) {... */\n    tag_20:\n        /* \"contracts/4_Auction.sol\":1999:2002  _id */\n      dup1\n        /* \"contracts/4_Auction.sol\":2004:2013  msg.value */\n      callvalue\n        /* \"contracts/4_Auction.sol\":716:741  Product storage myProduct */\n      0x00\n        /* \"contracts/4_Auction.sol\":744:752  products */\n      0x01\n        /* \"contracts/4_Auction.sol\":753:755  id */\n      dup4\n        /* \"contracts/4_Auction.sol\":744:756  products[id] */\n      dup2\n      sload\n      dup2\n      lt\n      tag_54\n      jumpi\n      tag_55\n      tag_56\n      jump\t// in\n    tag_55:\n    tag_54:\n      swap1\n      0x00\n      mstore\n      keccak256(0x00, 0x20)\n      swap1\n      0x0b\n      mul\n      add\n        /* \"contracts/4_Auction.sol\":716:756  Product storage myProduct = products[id] */\n      swap1\n      pop\n        /* \"contracts/4_Auction.sol\":775:784  myProduct */\n      dup1\n        /* \"contracts/4_Auction.sol\":775:791  myProduct.status */\n      0x09\n      add\n      0x00\n      swap1\n      sload\n      swap1\n      0x0100\n      exp\n      swap1\n      div\n      0xff\n      and\n        /* \"contracts/4_Auction.sol\":767:818  require(myProduct.status, \"Auction is not active.\") */\n      tag_58\n      jumpi\n      mload(0x40)\n      0x08c379a000000000000000000000000000000000000000000000000000000000\n      dup2\n      mstore\n      0x04\n      add\n      tag_59\n      swap1\n      tag_60\n      jump\t// in\n    tag_59:\n      mload(0x40)\n      dup1\n      swap2\n      sub\n      swap1\n      revert\n    tag_58:\n        /* \"contracts/4_Auction.sol\":855:864  myProduct */\n      dup1\n        /* \"contracts/4_Auction.sol\":855:872  myProduct.endTime */\n      0x0a\n      add\n      sload\n        /* \"contracts/4_Auction.sol\":837:852  block.timestamp */\n      timestamp\n        /* \"contracts/4_Auction.sol\":837:872  block.timestamp < myProduct.endTime */\n      lt\n        /* \"contracts/4_Auction.sol\":829:895  require(block.timestamp < myProduct.endTime, \"Auction has ended.\") */\n      tag_61\n      jumpi\n      mload(0x40)\n      0x08c379a000000000000000000000000000000000000000000000000000000000\n      dup2\n      mstore\n      0x04\n      add\n      tag_62\n      swap1\n      tag_63\n      jump\t// in\n    tag_62:\n      mload(0x40)\n      dup1\n      swap2\n      sub\n      swap1\n      revert\n    tag_61:\n        /* \"contracts/4_Auction.sol\":936:942  amount */\n      dup2\n        /* \"contracts/4_Auction.sol\":914:923  myProduct */\n      dup2\n        /* \"contracts/4_Auction.sol\":914:932  myProduct.bidPrice */\n      0x05\n      add\n      sload\n        /* \"contracts/4_Auction.sol\":914:942  myProduct.bidPrice <= amount */\n      gt\n      iszero\n        /* \"contracts/4_Auction.sol\":906:984  require(myProduct.bidPrice <= amount, \"Bid amount must be greater than price\") */\n      tag_64\n      jumpi\n      mload(0x40)\n      0x08c379a000000000000000000000000000000000000000000000000000000000\n      dup2\n      mstore\n      0x04\n      add\n      tag_65\n      swap1\n      tag_66\n      jump\t// in\n    tag_65:\n      mload(0x40)\n      dup1\n      swap2\n      sub\n      swap1\n      revert\n    tag_64:\n        /* \"contracts/4_Auction.sol\":2053:2076  Product storage product */\n      0x00\n        /* \"contracts/4_Auction.sol\":2079:2087  products */\n      0x01\n        /* \"contracts/4_Auction.sol\":2088:2091  _id */\n      dup6\n        /* \"contracts/4_Auction.sol\":2079:2092  products[_id] */\n      dup2\n      sload\n      dup2\n      lt\n      tag_68\n      jumpi\n      tag_69\n      tag_56\n      jump\t// in\n    tag_69:\n    tag_68:\n      swap1\n      0x00\n      mstore\n      keccak256(0x00, 0x20)\n      swap1\n      0x0b\n      mul\n      add\n        /* \"contracts/4_Auction.sol\":2053:2092  Product storage product = products[_id] */\n      swap1\n      pop\n        /* \"contracts/4_Auction.sol\":2142:2143  0 */\n      0x00\n        /* \"contracts/4_Auction.sol\":2109:2144  product.highestBidder != address(0) */\n      0xffffffffffffffffffffffffffffffffffffffff\n      and\n        /* \"contracts/4_Auction.sol\":2109:2116  product */\n      dup2\n        /* \"contracts/4_Auction.sol\":2109:2130  product.highestBidder */\n      0x07\n      add\n      0x00\n      swap1\n      sload\n      swap1\n      0x0100\n      exp\n      swap1\n      div\n      0xffffffffffffffffffffffffffffffffffffffff\n      and\n        /* \"contracts/4_Auction.sol\":2109:2144  product.highestBidder != address(0) */\n      0xffffffffffffffffffffffffffffffffffffffff\n      and\n      eq\n        /* \"contracts/4_Auction.sol\":2105:2225  if (product.highestBidder != address(0)) {... */\n      tag_71\n      jumpi\n        /* \"contracts/4_Auction.sol\":2195:2202  product */\n      dup1\n        /* \"contracts/4_Auction.sol\":2195:2213  product.highestBid */\n      0x08\n      add\n      sload\n        /* \"contracts/4_Auction.sol\":2161:2168  refunds */\n      0x02\n        /* \"contracts/4_Auction.sol\":2161:2191  refunds[product.highestBidder] */\n      0x00\n        /* \"contracts/4_Auction.sol\":2169:2176  product */\n      dup4\n        /* \"contracts/4_Auction.sol\":2169:2190  product.highestBidder */\n      0x07\n      add\n      0x00\n      swap1\n      sload\n      swap1\n      0x0100\n      exp\n      swap1\n      div\n      0xffffffffffffffffffffffffffffffffffffffff\n      and\n        /* \"contracts/4_Auction.sol\":2161:2191  refunds[product.highestBidder] */\n      0xffffffffffffffffffffffffffffffffffffffff\n      and\n      0xffffffffffffffffffffffffffffffffffffffff\n      and\n      dup2\n      mstore\n      0x20\n      add\n      swap1\n      dup2\n      mstore\n      0x20\n      add\n      0x00\n      keccak256\n      0x00\n        /* \"contracts/4_Auction.sol\":2161:2213  refunds[product.highestBidder] += product.highestBid */\n      dup3\n      dup3\n      sload\n      tag_72\n      swap2\n      swap1\n      tag_30\n      jump\t// in\n    tag_72:\n      swap3\n      pop\n      pop\n      dup2\n      swap1\n      sstore\n      pop\n        /* \"contracts/4_Auction.sol\":2105:2225  if (product.highestBidder != address(0)) {... */\n    tag_71:\n        /* \"contracts/4_Auction.sol\":2267:2277  msg.sender */\n      caller\n        /* \"contracts/4_Auction.sol\":2235:2242  product */\n      dup2\n        /* \"contracts/4_Auction.sol\":2235:2256  product.highestBidder */\n      0x07\n      add\n      0x00\n        /* \"contracts/4_Auction.sol\":2235:2278  product.highestBidder = payable(msg.sender) */\n      0x0100\n      exp\n      dup2\n      sload\n      dup2\n      0xffffffffffffffffffffffffffffffffffffffff\n      mul\n      not\n      and\n      swap1\n      dup4\n      0xffffffffffffffffffffffffffffffffffffffff\n      and\n      mul\n      or\n      swap1\n      sstore\n      pop\n        /* \"contracts/4_Auction.sol\":2310:2319  msg.value */\n      callvalue\n        /* \"contracts/4_Auction.sol\":2289:2296  product */\n      dup2\n        /* \"contracts/4_Auction.sol\":2289:2307  product.highestBid */\n      0x08\n      add\n        /* \"contracts/4_Auction.sol\":2289:2319  product.highestBid = msg.value */\n      dup2\n      swap1\n      sstore\n      pop\n        /* \"contracts/4_Auction.sol\":2372:2381  msg.value */\n      callvalue\n        /* \"contracts/4_Auction.sol\":2349:2356  product */\n      dup2\n        /* \"contracts/4_Auction.sol\":2349:2369  product.bidIncrement */\n      0x06\n      add\n      sload\n        /* \"contracts/4_Auction.sol\":2349:2381  product.bidIncrement + msg.value */\n      tag_73\n      swap2\n      swap1\n      tag_30\n      jump\t// in\n    tag_73:\n        /* \"contracts/4_Auction.sol\":2330:2337  product */\n      dup2\n        /* \"contracts/4_Auction.sol\":2330:2346  product.bidPrice */\n      0x05\n      add\n        /* \"contracts/4_Auction.sol\":2330:2381  product.bidPrice = product.bidIncrement + msg.value */\n      dup2\n      swap1\n      sstore\n      pop\n        /* \"contracts/4_Auction.sol\":2407:2444  BidPlaced(_id, msg.sender, msg.value) */\n      0x0e54eff26401bf69b81b26f60bd85ef47f5d85275c1d268d84f68d6897431c47\n        /* \"contracts/4_Auction.sol\":2417:2420  _id */\n      dup6\n        /* \"contracts/4_Auction.sol\":2422:2432  msg.sender */\n      caller\n        /* \"contracts/4_Auction.sol\":2434:2443  msg.value */\n      callvalue\n        /* \"contracts/4_Auction.sol\":2407:2444  BidPlaced(_id, msg.sender, msg.value) */\n      mload(0x40)\n      tag_74\n      swap4\n      swap3\n      swap2\n      swap1\n      tag_75\n      jump\t// in\n    tag_74:\n      mload(0x40)\n      dup1\n      swap2\n      sub\n      swap1\n      log1\n        /* \"contracts/4_Auction.sol\":2015:2452  {... */\n      pop\n        /* \"contracts/4_Auction.sol\":705:1004  {... */\n      pop\n        /* \"contracts/4_Auction.sol\":1942:2452  function placeBid(uint _id) external payable validateBid(_id, msg.value) {... */\n      pop\n      pop\n      pop\n      jump\t// out\n        /* \"contracts/4_Auction.sol\":614:653  mapping(address => uint) public refunds */\n    tag_25:\n      mstore(0x20, 0x02)\n      dup1\n      0x00\n      mstore\n      keccak256(0x00, 0x40)\n      0x00\n      swap2\n      pop\n      swap1\n      pop\n      sload\n      dup2\n      jump\t// out\n        /* \"#utility.yul\":7:82   */\n    tag_76:\n        /* \"#utility.yul\":40:46   */\n      0x00\n        /* \"#utility.yul\":73:75   */\n      0x40\n        /* \"#utility.yul\":67:76   */\n      mload\n        /* \"#utility.yul\":57:76   */\n      swap1\n      pop\n        /* \"#utility.yul\":7:82   */\n      swap1\n      jump\t// out\n        /* \"#utility.yul\":88:205   */\n    tag_77:\n        /* \"#utility.yul\":197:198   */\n      0x00\n        /* \"#utility.yul\":194:195   */\n      dup1\n        /* \"#utility.yul\":187:199   */\n      revert\n        /* \"#utility.yul\":211:328   */\n    tag_78:\n        /* \"#utility.yul\":320:321   */\n      0x00\n        /* \"#utility.yul\":317:318   */\n      dup1\n        /* \"#utility.yul\":310:322   */\n      revert\n        /* \"#utility.yul\":334:451   */\n    tag_79:\n        /* \"#utility.yul\":443:444   */\n      0x00\n        /* \"#utility.yul\":440:441   */\n      dup1\n        /* \"#utility.yul\":433:445   */\n      revert\n        /* \"#utility.yul\":457:574   */\n    tag_80:\n        /* \"#utility.yul\":566:567   */\n      0x00\n        /* \"#utility.yul\":563:564   */\n      dup1\n        /* \"#utility.yul\":556:568   */\n      revert\n        /* \"#utility.yul\":580:682   */\n    tag_81:\n        /* \"#utility.yul\":621:627   */\n      0x00\n        /* \"#utility.yul\":672:674   */\n      0x1f\n        /* \"#utility.yul\":668:675   */\n      not\n        /* \"#utility.yul\":663:665   */\n      0x1f\n        /* \"#utility.yul\":656:661   */\n      dup4\n        /* \"#utility.yul\":652:666   */\n      add\n        /* \"#utility.yul\":648:676   */\n      and\n        /* \"#utility.yul\":638:676   */\n      swap1\n      pop\n        /* \"#utility.yul\":580:682   */\n      swap2\n      swap1\n      pop\n      jump\t// out\n        /* \"#utility.yul\":688:868   */\n    tag_82:\n        /* \"#utility.yul\":736:813   */\n      0x4e487b7100000000000000000000000000000000000000000000000000000000\n        /* \"#utility.yul\":733:734   */\n      0x00\n        /* \"#utility.yul\":726:814   */\n      mstore\n        /* \"#utility.yul\":833:837   */\n      0x41\n        /* \"#utility.yul\":830:831   */\n      0x04\n        /* \"#utility.yul\":823:838   */\n      mstore\n        /* \"#utility.yul\":857:861   */\n      0x24\n        /* \"#utility.yul\":854:855   */\n      0x00\n        /* \"#utility.yul\":847:862   */\n      revert\n        /* \"#utility.yul\":874:1155   */\n    tag_83:\n        /* \"#utility.yul\":957:984   */\n      tag_138\n        /* \"#utility.yul\":979:983   */\n      dup3\n        /* \"#utility.yul\":957:984   */\n      tag_81\n      jump\t// in\n    tag_138:\n        /* \"#utility.yul\":949:955   */\n      dup2\n        /* \"#utility.yul\":945:985   */\n      add\n        /* \"#utility.yul\":1087:1093   */\n      dup2\n        /* \"#utility.yul\":1075:1085   */\n      dup2\n        /* \"#utility.yul\":1072:1094   */\n      lt\n        /* \"#utility.yul\":1051:1069   */\n      0xffffffffffffffff\n        /* \"#utility.yul\":1039:1049   */\n      dup3\n        /* \"#utility.yul\":1036:1070   */\n      gt\n        /* \"#utility.yul\":1033:1095   */\n      or\n        /* \"#utility.yul\":1030:1118   */\n      iszero\n      tag_139\n      jumpi\n        /* \"#utility.yul\":1098:1116   */\n      tag_140\n      tag_82\n      jump\t// in\n    tag_140:\n        /* \"#utility.yul\":1030:1118   */\n    tag_139:\n        /* \"#utility.yul\":1138:1148   */\n      dup1\n        /* \"#utility.yul\":1134:1136   */\n      0x40\n        /* \"#utility.yul\":1127:1149   */\n      mstore\n        /* \"#utility.yul\":917:1155   */\n      pop\n        /* \"#utility.yul\":874:1155   */\n      pop\n      pop\n      jump\t// out\n        /* \"#utility.yul\":1161:1290   */\n    tag_84:\n        /* \"#utility.yul\":1195:1201   */\n      0x00\n        /* \"#utility.yul\":1222:1242   */\n      tag_142\n      tag_76\n      jump\t// in\n    tag_142:\n        /* \"#utility.yul\":1212:1242   */\n      swap1\n      pop\n        /* \"#utility.yul\":1251:1284   */\n      tag_143\n        /* \"#utility.yul\":1279:1283   */\n      dup3\n        /* \"#utility.yul\":1271:1277   */\n      dup3\n        /* \"#utility.yul\":1251:1284   */\n      tag_83\n      jump\t// in\n    tag_143:\n        /* \"#utility.yul\":1161:1290   */\n      swap2\n      swap1\n      pop\n      jump\t// out\n        /* \"#utility.yul\":1296:1604   */\n    tag_85:\n        /* \"#utility.yul\":1358:1362   */\n      0x00\n        /* \"#utility.yul\":1448:1466   */\n      0xffffffffffffffff\n        /* \"#utility.yul\":1440:1446   */\n      dup3\n        /* \"#utility.yul\":1437:1467   */\n      gt\n        /* \"#utility.yul\":1434:1490   */\n      iszero\n      tag_145\n      jumpi\n        /* \"#utility.yul\":1470:1488   */\n      tag_146\n      tag_82\n      jump\t// in\n    tag_146:\n        /* \"#utility.yul\":1434:1490   */\n    tag_145:\n        /* \"#utility.yul\":1508:1537   */\n      tag_147\n        /* \"#utility.yul\":1530:1536   */\n      dup3\n        /* \"#utility.yul\":1508:1537   */\n      tag_81\n      jump\t// in\n    tag_147:\n        /* \"#utility.yul\":1500:1537   */\n      swap1\n      pop\n        /* \"#utility.yul\":1592:1596   */\n      0x20\n        /* \"#utility.yul\":1586:1590   */\n      dup2\n        /* \"#utility.yul\":1582:1597   */\n      add\n        /* \"#utility.yul\":1574:1597   */\n      swap1\n      pop\n        /* \"#utility.yul\":1296:1604   */\n      swap2\n      swap1\n      pop\n      jump\t// out\n        /* \"#utility.yul\":1610:1758   */\n    tag_86:\n        /* \"#utility.yul\":1708:1714   */\n      dup3\n        /* \"#utility.yul\":1703:1706   */\n      dup2\n        /* \"#utility.yul\":1698:1701   */\n      dup4\n        /* \"#utility.yul\":1685:1715   */\n      calldatacopy\n        /* \"#utility.yul\":1749:1750   */\n      0x00\n        /* \"#utility.yul\":1740:1746   */\n      dup4\n        /* \"#utility.yul\":1735:1738   */\n      dup4\n        /* \"#utility.yul\":1731:1747   */\n      add\n        /* \"#utility.yul\":1724:1751   */\n      mstore\n        /* \"#utility.yul\":1610:1758   */\n      pop\n      pop\n      pop\n      jump\t// out\n        /* \"#utility.yul\":1764:2189   */\n    tag_87:\n        /* \"#utility.yul\":1842:1847   */\n      0x00\n        /* \"#utility.yul\":1867:1933   */\n      tag_150\n        /* \"#utility.yul\":1883:1932   */\n      tag_151\n        /* \"#utility.yul\":1925:1931   */\n      dup5\n        /* \"#utility.yul\":1883:1932   */\n      tag_85\n      jump\t// in\n    tag_151:\n        /* \"#utility.yul\":1867:1933   */\n      tag_84\n      jump\t// in\n    tag_150:\n        /* \"#utility.yul\":1858:1933   */\n      swap1\n      pop\n        /* \"#utility.yul\":1956:1962   */\n      dup3\n        /* \"#utility.yul\":1949:1954   */\n      dup2\n        /* \"#utility.yul\":1942:1963   */\n      mstore\n        /* \"#utility.yul\":1994:1998   */\n      0x20\n        /* \"#utility.yul\":1987:1992   */\n      dup2\n        /* \"#utility.yul\":1983:1999   */\n      add\n        /* \"#utility.yul\":2032:2035   */\n      dup5\n        /* \"#utility.yul\":2023:2029   */\n      dup5\n        /* \"#utility.yul\":2018:2021   */\n      dup5\n        /* \"#utility.yul\":2014:2030   */\n      add\n        /* \"#utility.yul\":2011:2036   */\n      gt\n        /* \"#utility.yul\":2008:2120   */\n      iszero\n      tag_152\n      jumpi\n        /* \"#utility.yul\":2039:2118   */\n      tag_153\n      tag_80\n      jump\t// in\n    tag_153:\n        /* \"#utility.yul\":2008:2120   */\n    tag_152:\n        /* \"#utility.yul\":2129:2183   */\n      tag_154\n        /* \"#utility.yul\":2176:2182   */\n      dup5\n        /* \"#utility.yul\":2171:2174   */\n      dup3\n        /* \"#utility.yul\":2166:2169   */\n      dup6\n        /* \"#utility.yul\":2129:2183   */\n      tag_86\n      jump\t// in\n    tag_154:\n        /* \"#utility.yul\":1848:2189   */\n      pop\n        /* \"#utility.yul\":1764:2189   */\n      swap4\n      swap3\n      pop\n      pop\n      pop\n      jump\t// out\n        /* \"#utility.yul\":2209:2549   */\n    tag_88:\n        /* \"#utility.yul\":2265:2270   */\n      0x00\n        /* \"#utility.yul\":2314:2317   */\n      dup3\n        /* \"#utility.yul\":2307:2311   */\n      0x1f\n        /* \"#utility.yul\":2299:2305   */\n      dup4\n        /* \"#utility.yul\":2295:2312   */\n      add\n        /* \"#utility.yul\":2291:2318   */\n      slt\n        /* \"#utility.yul\":2281:2403   */\n      tag_156\n      jumpi\n        /* \"#utility.yul\":2322:2401   */\n      tag_157\n      tag_79\n      jump\t// in\n    tag_157:\n        /* \"#utility.yul\":2281:2403   */\n    tag_156:\n        /* \"#utility.yul\":2439:2445   */\n      dup2\n        /* \"#utility.yul\":2426:2446   */\n      calldataload\n        /* \"#utility.yul\":2464:2543   */\n      tag_158\n        /* \"#utility.yul\":2539:2542   */\n      dup5\n        /* \"#utility.yul\":2531:2537   */\n      dup3\n        /* \"#utility.yul\":2524:2528   */\n      0x20\n        /* \"#utility.yul\":2516:2522   */\n      dup7\n        /* \"#utility.yul\":2512:2529   */\n      add\n        /* \"#utility.yul\":2464:2543   */\n      tag_87\n      jump\t// in\n    tag_158:\n        /* \"#utility.yul\":2455:2543   */\n      swap2\n      pop\n        /* \"#utility.yul\":2271:2549   */\n      pop\n        /* \"#utility.yul\":2209:2549   */\n      swap3\n      swap2\n      pop\n      pop\n      jump\t// out\n        /* \"#utility.yul\":2555:2632   */\n    tag_89:\n        /* \"#utility.yul\":2592:2599   */\n      0x00\n        /* \"#utility.yul\":2621:2626   */\n      dup2\n        /* \"#utility.yul\":2610:2626   */\n      swap1\n      pop\n        /* \"#utility.yul\":2555:2632   */\n      swap2\n      swap1\n      pop\n      jump\t// out\n        /* \"#utility.yul\":2638:2760   */\n    tag_90:\n        /* \"#utility.yul\":2711:2735   */\n      tag_161\n        /* \"#utility.yul\":2729:2734   */\n      dup2\n        /* \"#utility.yul\":2711:2735   */\n      tag_89\n      jump\t// in\n    tag_161:\n        /* \"#utility.yul\":2704:2709   */\n      dup2\n        /* \"#utility.yul\":2701:2736   */\n      eq\n        /* \"#utility.yul\":2691:2754   */\n      tag_162\n      jumpi\n        /* \"#utility.yul\":2750:2751   */\n      0x00\n        /* \"#utility.yul\":2747:2748   */\n      dup1\n        /* \"#utility.yul\":2740:2752   */\n      revert\n        /* \"#utility.yul\":2691:2754   */\n    tag_162:\n        /* \"#utility.yul\":2638:2760   */\n      pop\n      jump\t// out\n        /* \"#utility.yul\":2766:2905   */\n    tag_91:\n        /* \"#utility.yul\":2812:2817   */\n      0x00\n        /* \"#utility.yul\":2850:2856   */\n      dup2\n        /* \"#utility.yul\":2837:2857   */\n      calldataload\n        /* \"#utility.yul\":2828:2857   */\n      swap1\n      pop\n        /* \"#utility.yul\":2866:2899   */\n      tag_164\n        /* \"#utility.yul\":2893:2898   */\n      dup2\n        /* \"#utility.yul\":2866:2899   */\n      tag_90\n      jump\t// in\n    tag_164:\n        /* \"#utility.yul\":2766:2905   */\n      swap3\n      swap2\n      pop\n      pop\n      jump\t// out\n        /* \"#utility.yul\":2911:4182   */\n    tag_9:\n        /* \"#utility.yul\":3026:3032   */\n      0x00\n        /* \"#utility.yul\":3034:3040   */\n      dup1\n        /* \"#utility.yul\":3042:3048   */\n      0x00\n        /* \"#utility.yul\":3050:3056   */\n      dup1\n        /* \"#utility.yul\":3058:3064   */\n      0x00\n        /* \"#utility.yul\":3107:3110   */\n      0xa0\n        /* \"#utility.yul\":3095:3104   */\n      dup7\n        /* \"#utility.yul\":3086:3093   */\n      dup9\n        /* \"#utility.yul\":3082:3105   */\n      sub\n        /* \"#utility.yul\":3078:3111   */\n      slt\n        /* \"#utility.yul\":3075:3195   */\n      iszero\n      tag_166\n      jumpi\n        /* \"#utility.yul\":3114:3193   */\n      tag_167\n      tag_77\n      jump\t// in\n    tag_167:\n        /* \"#utility.yul\":3075:3195   */\n    tag_166:\n        /* \"#utility.yul\":3262:3263   */\n      0x00\n        /* \"#utility.yul\":3251:3260   */\n      dup7\n        /* \"#utility.yul\":3247:3264   */\n      add\n        /* \"#utility.yul\":3234:3265   */\n      calldataload\n        /* \"#utility.yul\":3292:3310   */\n      0xffffffffffffffff\n        /* \"#utility.yul\":3284:3290   */\n      dup2\n        /* \"#utility.yul\":3281:3311   */\n      gt\n        /* \"#utility.yul\":3278:3395   */\n      iszero\n      tag_168\n      jumpi\n        /* \"#utility.yul\":3314:3393   */\n      tag_169\n      tag_78\n      jump\t// in\n    tag_169:\n        /* \"#utility.yul\":3278:3395   */\n    tag_168:\n        /* \"#utility.yul\":3419:3482   */\n      tag_170\n        /* \"#utility.yul\":3474:3481   */\n      dup9\n        /* \"#utility.yul\":3465:3471   */\n      dup3\n        /* \"#utility.yul\":3454:3463   */\n      dup10\n        /* \"#utility.yul\":3450:3472   */\n      add\n        /* \"#utility.yul\":3419:3482   */\n      tag_88\n      jump\t// in\n    tag_170:\n        /* \"#utility.yul\":3409:3482   */\n      swap6\n      pop\n        /* \"#utility.yul\":3205:3492   */\n      pop\n        /* \"#utility.yul\":3559:3561   */\n      0x20\n        /* \"#utility.yul\":3548:3557   */\n      dup7\n        /* \"#utility.yul\":3544:3562   */\n      add\n        /* \"#utility.yul\":3531:3563   */\n      calldataload\n        /* \"#utility.yul\":3590:3608   */\n      0xffffffffffffffff\n        /* \"#utility.yul\":3582:3588   */\n      dup2\n        /* \"#utility.yul\":3579:3609   */\n      gt\n        /* \"#utility.yul\":3576:3693   */\n      iszero\n      tag_171\n      jumpi\n        /* \"#utility.yul\":3612:3691   */\n      tag_172\n      tag_78\n      jump\t// in\n    tag_172:\n        /* \"#utility.yul\":3576:3693   */\n    tag_171:\n        /* \"#utility.yul\":3717:3780   */\n      tag_173\n        /* \"#utility.yul\":3772:3779   */\n      dup9\n        /* \"#utility.yul\":3763:3769   */\n      dup3\n        /* \"#utility.yul\":3752:3761   */\n      dup10\n        /* \"#utility.yul\":3748:3770   */\n      add\n        /* \"#utility.yul\":3717:3780   */\n      tag_88\n      jump\t// in\n    tag_173:\n        /* \"#utility.yul\":3707:3780   */\n      swap5\n      pop\n        /* \"#utility.yul\":3502:3790   */\n      pop\n        /* \"#utility.yul\":3829:3831   */\n      0x40\n        /* \"#utility.yul\":3855:3908   */\n      tag_174\n        /* \"#utility.yul\":3900:3907   */\n      dup9\n        /* \"#utility.yul\":3891:3897   */\n      dup3\n        /* \"#utility.yul\":3880:3889   */\n      dup10\n        /* \"#utility.yul\":3876:3898   */\n      add\n        /* \"#utility.yul\":3855:3908   */\n      tag_91\n      jump\t// in\n    tag_174:\n        /* \"#utility.yul\":3845:3908   */\n      swap4\n      pop\n        /* \"#utility.yul\":3800:3918   */\n      pop\n        /* \"#utility.yul\":3957:3959   */\n      0x60\n        /* \"#utility.yul\":3983:4036   */\n      tag_175\n        /* \"#utility.yul\":4028:4035   */\n      dup9\n        /* \"#utility.yul\":4019:4025   */\n      dup3\n        /* \"#utility.yul\":4008:4017   */\n      dup10\n        /* \"#utility.yul\":4004:4026   */\n      add\n        /* \"#utility.yul\":3983:4036   */\n      tag_91\n      jump\t// in\n    tag_175:\n        /* \"#utility.yul\":3973:4036   */\n      swap3\n      pop\n        /* \"#utility.yul\":3928:4046   */\n      pop\n        /* \"#utility.yul\":4085:4088   */\n      0x80\n        /* \"#utility.yul\":4112:4165   */\n      tag_176\n        /* \"#utility.yul\":4157:4164   */\n      dup9\n        /* \"#utility.yul\":4148:4154   */\n      dup3\n        /* \"#utility.yul\":4137:4146   */\n      dup10\n        /* \"#utility.yul\":4133:4155   */\n      add\n        /* \"#utility.yul\":4112:4165   */\n      tag_91\n      jump\t// in\n    tag_176:\n        /* \"#utility.yul\":4102:4165   */\n      swap2\n      pop\n        /* \"#utility.yul\":4056:4175   */\n      pop\n        /* \"#utility.yul\":2911:4182   */\n      swap3\n      swap6\n      pop\n      swap3\n      swap6\n      swap1\n      swap4\n      pop\n      jump\t// out\n        /* \"#utility.yul\":4188:4517   */\n    tag_14:\n        /* \"#utility.yul\":4247:4253   */\n      0x00\n        /* \"#utility.yul\":4296:4298   */\n      0x20\n        /* \"#utility.yul\":4284:4293   */\n      dup3\n        /* \"#utility.yul\":4275:4282   */\n      dup5\n        /* \"#utility.yul\":4271:4294   */\n      sub\n        /* \"#utility.yul\":4267:4299   */\n      slt\n        /* \"#utility.yul\":4264:4383   */\n      iszero\n      tag_178\n      jumpi\n        /* \"#utility.yul\":4302:4381   */\n      tag_179\n      tag_77\n      jump\t// in\n    tag_179:\n        /* \"#utility.yul\":4264:4383   */\n    tag_178:\n        /* \"#utility.yul\":4422:4423   */\n      0x00\n        /* \"#utility.yul\":4447:4500   */\n      tag_180\n        /* \"#utility.yul\":4492:4499   */\n      dup5\n        /* \"#utility.yul\":4483:4489   */\n      dup3\n        /* \"#utility.yul\":4472:4481   */\n      dup6\n        /* \"#utility.yul\":4468:4490   */\n      add\n        /* \"#utility.yul\":4447:4500   */\n      tag_91\n      jump\t// in\n    tag_180:\n        /* \"#utility.yul\":4437:4500   */\n      swap2\n      pop\n        /* \"#utility.yul\":4393:4510   */\n      pop\n        /* \"#utility.yul\":4188:4517   */\n      swap3\n      swap2\n      pop\n      pop\n      jump\t// out\n        /* \"#utility.yul\":4523:4641   */\n    tag_92:\n        /* \"#utility.yul\":4610:4634   */\n      tag_182\n        /* \"#utility.yul\":4628:4633   */\n      dup2\n        /* \"#utility.yul\":4610:4634   */\n      tag_89\n      jump\t// in\n    tag_182:\n        /* \"#utility.yul\":4605:4608   */\n      dup3\n        /* \"#utility.yul\":4598:4635   */\n      mstore\n        /* \"#utility.yul\":4523:4641   */\n      pop\n      pop\n      jump\t// out\n        /* \"#utility.yul\":4647:4746   */\n    tag_93:\n        /* \"#utility.yul\":4699:4705   */\n      0x00\n        /* \"#utility.yul\":4733:4738   */\n      dup2\n        /* \"#utility.yul\":4727:4739   */\n      mload\n        /* \"#utility.yul\":4717:4739   */\n      swap1\n      pop\n        /* \"#utility.yul\":4647:4746   */\n      swap2\n      swap1\n      pop\n      jump\t// out\n        /* \"#utility.yul\":4752:4921   */\n    tag_94:\n        /* \"#utility.yul\":4836:4847   */\n      0x00\n        /* \"#utility.yul\":4870:4876   */\n      dup3\n        /* \"#utility.yul\":4865:4868   */\n      dup3\n        /* \"#utility.yul\":4858:4877   */\n      mstore\n        /* \"#utility.yul\":4910:4914   */\n      0x20\n        /* \"#utility.yul\":4905:4908   */\n      dup3\n        /* \"#utility.yul\":4901:4915   */\n      add\n        /* \"#utility.yul\":4886:4915   */\n      swap1\n      pop\n        /* \"#utility.yul\":4752:4921   */\n      swap3\n      swap2\n      pop\n      pop\n      jump\t// out\n        /* \"#utility.yul\":4927:5066   */\n    tag_95:\n        /* \"#utility.yul\":5016:5022   */\n      dup3\n        /* \"#utility.yul\":5011:5014   */\n      dup2\n        /* \"#utility.yul\":5006:5009   */\n      dup4\n        /* \"#utility.yul\":5000:5023   */\n      mcopy\n        /* \"#utility.yul\":5057:5058   */\n      0x00\n        /* \"#utility.yul\":5048:5054   */\n      dup4\n        /* \"#utility.yul\":5043:5046   */\n      dup4\n        /* \"#utility.yul\":5039:5055   */\n      add\n        /* \"#utility.yul\":5032:5059   */\n      mstore\n        /* \"#utility.yul\":4927:5066   */\n      pop\n      pop\n      pop\n      jump\t// out\n        /* \"#utility.yul\":5072:5449   */\n    tag_96:\n        /* \"#utility.yul\":5160:5163   */\n      0x00\n        /* \"#utility.yul\":5188:5227   */\n      tag_187\n        /* \"#utility.yul\":5221:5226   */\n      dup3\n        /* \"#utility.yul\":5188:5227   */\n      tag_93\n      jump\t// in\n    tag_187:\n        /* \"#utility.yul\":5243:5314   */\n      tag_188\n        /* \"#utility.yul\":5307:5313   */\n      dup2\n        /* \"#utility.yul\":5302:5305   */\n      dup6\n        /* \"#utility.yul\":5243:5314   */\n      tag_94\n      jump\t// in\n    tag_188:\n        /* \"#utility.yul\":5236:5314   */\n      swap4\n      pop\n        /* \"#utility.yul\":5323:5388   */\n      tag_189\n        /* \"#utility.yul\":5381:5387   */\n      dup2\n        /* \"#utility.yul\":5376:5379   */\n      dup6\n        /* \"#utility.yul\":5369:5373   */\n      0x20\n        /* \"#utility.yul\":5362:5367   */\n      dup7\n        /* \"#utility.yul\":5358:5374   */\n      add\n        /* \"#utility.yul\":5323:5388   */\n      tag_95\n      jump\t// in\n    tag_189:\n        /* \"#utility.yul\":5413:5442   */\n      tag_190\n        /* \"#utility.yul\":5435:5441   */\n      dup2\n        /* \"#utility.yul\":5413:5442   */\n      tag_81\n      jump\t// in\n    tag_190:\n        /* \"#utility.yul\":5408:5411   */\n      dup5\n        /* \"#utility.yul\":5404:5443   */\n      add\n        /* \"#utility.yul\":5397:5443   */\n      swap2\n      pop\n        /* \"#utility.yul\":5164:5449   */\n      pop\n        /* \"#utility.yul\":5072:5449   */\n      swap3\n      swap2\n      pop\n      pop\n      jump\t// out\n        /* \"#utility.yul\":5455:5581   */\n    tag_97:\n        /* \"#utility.yul\":5492:5499   */\n      0x00\n        /* \"#utility.yul\":5532:5574   */\n      0xffffffffffffffffffffffffffffffffffffffff\n        /* \"#utility.yul\":5525:5530   */\n      dup3\n        /* \"#utility.yul\":5521:5575   */\n      and\n        /* \"#utility.yul\":5510:5575   */\n      swap1\n      pop\n        /* \"#utility.yul\":5455:5581   */\n      swap2\n      swap1\n      pop\n      jump\t// out\n        /* \"#utility.yul\":5587:5691   */\n    tag_98:\n        /* \"#utility.yul\":5632:5639   */\n      0x00\n        /* \"#utility.yul\":5661:5685   */\n      tag_193\n        /* \"#utility.yul\":5679:5684   */\n      dup3\n        /* \"#utility.yul\":5661:5685   */\n      tag_97\n      jump\t// in\n    tag_193:\n        /* \"#utility.yul\":5650:5685   */\n      swap1\n      pop\n        /* \"#utility.yul\":5587:5691   */\n      swap2\n      swap1\n      pop\n      jump\t// out\n        /* \"#utility.yul\":5697:5839   */\n    tag_99:\n        /* \"#utility.yul\":5800:5832   */\n      tag_195\n        /* \"#utility.yul\":5826:5831   */\n      dup2\n        /* \"#utility.yul\":5800:5832   */\n      tag_98\n      jump\t// in\n    tag_195:\n        /* \"#utility.yul\":5795:5798   */\n      dup3\n        /* \"#utility.yul\":5788:5833   */\n      mstore\n        /* \"#utility.yul\":5697:5839   */\n      pop\n      pop\n      jump\t// out\n        /* \"#utility.yul\":5845:5935   */\n    tag_100:\n        /* \"#utility.yul\":5879:5886   */\n      0x00\n        /* \"#utility.yul\":5922:5927   */\n      dup2\n        /* \"#utility.yul\":5915:5928   */\n      iszero\n        /* \"#utility.yul\":5908:5929   */\n      iszero\n        /* \"#utility.yul\":5897:5929   */\n      swap1\n      pop\n        /* \"#utility.yul\":5845:5935   */\n      swap2\n      swap1\n      pop\n      jump\t// out\n        /* \"#utility.yul\":5941:6050   */\n    tag_101:\n        /* \"#utility.yul\":6022:6043   */\n      tag_198\n        /* \"#utility.yul\":6037:6042   */\n      dup2\n        /* \"#utility.yul\":6022:6043   */\n      tag_100\n      jump\t// in\n    tag_198:\n        /* \"#utility.yul\":6017:6020   */\n      dup3\n        /* \"#utility.yul\":6010:6044   */\n      mstore\n        /* \"#utility.yul\":5941:6050   */\n      pop\n      pop\n      jump\t// out\n        /* \"#utility.yul\":6056:7622   */\n    tag_17:\n        /* \"#utility.yul\":6496:6500   */\n      0x00\n        /* \"#utility.yul\":6534:6537   */\n      0x0160\n        /* \"#utility.yul\":6523:6532   */\n      dup3\n        /* \"#utility.yul\":6519:6538   */\n      add\n        /* \"#utility.yul\":6511:6538   */\n      swap1\n      pop\n        /* \"#utility.yul\":6548:6619   */\n      tag_200\n        /* \"#utility.yul\":6616:6617   */\n      0x00\n        /* \"#utility.yul\":6605:6614   */\n      dup4\n        /* \"#utility.yul\":6601:6618   */\n      add\n        /* \"#utility.yul\":6592:6598   */\n      dup15\n        /* \"#utility.yul\":6548:6619   */\n      tag_92\n      jump\t// in\n    tag_200:\n        /* \"#utility.yul\":6666:6675   */\n      dup2\n        /* \"#utility.yul\":6660:6664   */\n      dup2\n        /* \"#utility.yul\":6656:6676   */\n      sub\n        /* \"#utility.yul\":6651:6653   */\n      0x20\n        /* \"#utility.yul\":6640:6649   */\n      dup4\n        /* \"#utility.yul\":6636:6654   */\n      add\n        /* \"#utility.yul\":6629:6677   */\n      mstore\n        /* \"#utility.yul\":6694:6772   */\n      tag_201\n        /* \"#utility.yul\":6767:6771   */\n      dup2\n        /* \"#utility.yul\":6758:6764   */\n      dup14\n        /* \"#utility.yul\":6694:6772   */\n      tag_96\n      jump\t// in\n    tag_201:\n        /* \"#utility.yul\":6686:6772   */\n      swap1\n      pop\n        /* \"#utility.yul\":6819:6828   */\n      dup2\n        /* \"#utility.yul\":6813:6817   */\n      dup2\n        /* \"#utility.yul\":6809:6829   */\n      sub\n        /* \"#utility.yul\":6804:6806   */\n      0x40\n        /* \"#utility.yul\":6793:6802   */\n      dup4\n        /* \"#utility.yul\":6789:6807   */\n      add\n        /* \"#utility.yul\":6782:6830   */\n      mstore\n        /* \"#utility.yul\":6847:6925   */\n      tag_202\n        /* \"#utility.yul\":6920:6924   */\n      dup2\n        /* \"#utility.yul\":6911:6917   */\n      dup13\n        /* \"#utility.yul\":6847:6925   */\n      tag_96\n      jump\t// in\n    tag_202:\n        /* \"#utility.yul\":6839:6925   */\n      swap1\n      pop\n        /* \"#utility.yul\":6935:7007   */\n      tag_203\n        /* \"#utility.yul\":7003:7005   */\n      0x60\n        /* \"#utility.yul\":6992:7001   */\n      dup4\n        /* \"#utility.yul\":6988:7006   */\n      add\n        /* \"#utility.yul\":6979:6985   */\n      dup12\n        /* \"#utility.yul\":6935:7007   */\n      tag_92\n      jump\t// in\n    tag_203:\n        /* \"#utility.yul\":7017:7106   */\n      tag_204\n        /* \"#utility.yul\":7101:7104   */\n      0x80\n        /* \"#utility.yul\":7090:7099   */\n      dup4\n        /* \"#utility.yul\":7086:7105   */\n      add\n        /* \"#utility.yul\":7077:7083   */\n      dup11\n        /* \"#utility.yul\":7017:7106   */\n      tag_99\n      jump\t// in\n    tag_204:\n        /* \"#utility.yul\":7116:7189   */\n      tag_205\n        /* \"#utility.yul\":7184:7187   */\n      0xa0\n        /* \"#utility.yul\":7173:7182   */\n      dup4\n        /* \"#utility.yul\":7169:7188   */\n      add\n        /* \"#utility.yul\":7160:7166   */\n      dup10\n        /* \"#utility.yul\":7116:7189   */\n      tag_92\n      jump\t// in\n    tag_205:\n        /* \"#utility.yul\":7199:7272   */\n      tag_206\n        /* \"#utility.yul\":7267:7270   */\n      0xc0\n        /* \"#utility.yul\":7256:7265   */\n      dup4\n        /* \"#utility.yul\":7252:7271   */\n      add\n        /* \"#utility.yul\":7243:7249   */\n      dup9\n        /* \"#utility.yul\":7199:7272   */\n      tag_92\n      jump\t// in\n    tag_206:\n        /* \"#utility.yul\":7282:7371   */\n      tag_207\n        /* \"#utility.yul\":7366:7369   */\n      0xe0\n        /* \"#utility.yul\":7355:7364   */\n      dup4\n        /* \"#utility.yul\":7351:7370   */\n      add\n        /* \"#utility.yul\":7342:7348   */\n      dup8\n        /* \"#utility.yul\":7282:7371   */\n      tag_99\n      jump\t// in\n    tag_207:\n        /* \"#utility.yul\":7381:7454   */\n      tag_208\n        /* \"#utility.yul\":7449:7452   */\n      0x0100\n        /* \"#utility.yul\":7438:7447   */\n      dup4\n        /* \"#utility.yul\":7434:7453   */\n      add\n        /* \"#utility.yul\":7425:7431   */\n      dup7\n        /* \"#utility.yul\":7381:7454   */\n      tag_92\n      jump\t// in\n    tag_208:\n        /* \"#utility.yul\":7464:7531   */\n      tag_209\n        /* \"#utility.yul\":7526:7529   */\n      0x0120\n        /* \"#utility.yul\":7515:7524   */\n      dup4\n        /* \"#utility.yul\":7511:7530   */\n      add\n        /* \"#utility.yul\":7502:7508   */\n      dup6\n        /* \"#utility.yul\":7464:7531   */\n      tag_101\n      jump\t// in\n    tag_209:\n        /* \"#utility.yul\":7541:7615   */\n      tag_210\n        /* \"#utility.yul\":7610:7613   */\n      0x0140\n        /* \"#utility.yul\":7599:7608   */\n      dup4\n        /* \"#utility.yul\":7595:7614   */\n      add\n        /* \"#utility.yul\":7585:7592   */\n      dup5\n        /* \"#utility.yul\":7541:7615   */\n      tag_92\n      jump\t// in\n    tag_210:\n        /* \"#utility.yul\":6056:7622   */\n      swap13\n      swap12\n      pop\n      pop\n      pop\n      pop\n      pop\n      pop\n      pop\n      pop\n      pop\n      pop\n      pop\n      pop\n      jump\t// out\n        /* \"#utility.yul\":7628:7724   */\n    tag_102:\n        /* \"#utility.yul\":7665:7672   */\n      0x00\n        /* \"#utility.yul\":7694:7718   */\n      tag_212\n        /* \"#utility.yul\":7712:7717   */\n      dup3\n        /* \"#utility.yul\":7694:7718   */\n      tag_97\n      jump\t// in\n    tag_212:\n        /* \"#utility.yul\":7683:7718   */\n      swap1\n      pop\n        /* \"#utility.yul\":7628:7724   */\n      swap2\n      swap1\n      pop\n      jump\t// out\n        /* \"#utility.yul\":7730:7852   */\n    tag_103:\n        /* \"#utility.yul\":7803:7827   */\n      tag_214\n        /* \"#utility.yul\":7821:7826   */\n      dup2\n        /* \"#utility.yul\":7803:7827   */\n      tag_102\n      jump\t// in\n    tag_214:\n        /* \"#utility.yul\":7796:7801   */\n      dup2\n        /* \"#utility.yul\":7793:7828   */\n      eq\n        /* \"#utility.yul\":7783:7846   */\n      tag_215\n      jumpi\n        /* \"#utility.yul\":7842:7843   */\n      0x00\n        /* \"#utility.yul\":7839:7840   */\n      dup1\n        /* \"#utility.yul\":7832:7844   */\n      revert\n        /* \"#utility.yul\":7783:7846   */\n    tag_215:\n        /* \"#utility.yul\":7730:7852   */\n      pop\n      jump\t// out\n        /* \"#utility.yul\":7858:7997   */\n    tag_104:\n        /* \"#utility.yul\":7904:7909   */\n      0x00\n        /* \"#utility.yul\":7942:7948   */\n      dup2\n        /* \"#utility.yul\":7929:7949   */\n      calldataload\n        /* \"#utility.yul\":7920:7949   */\n      swap1\n      pop\n        /* \"#utility.yul\":7958:7991   */\n      tag_217\n        /* \"#utility.yul\":7985:7990   */\n      dup2\n        /* \"#utility.yul\":7958:7991   */\n      tag_103\n      jump\t// in\n    tag_217:\n        /* \"#utility.yul\":7858:7997   */\n      swap3\n      swap2\n      pop\n      pop\n      jump\t// out\n        /* \"#utility.yul\":8003:8332   */\n    tag_24:\n        /* \"#utility.yul\":8062:8068   */\n      0x00\n        /* \"#utility.yul\":8111:8113   */\n      0x20\n        /* \"#utility.yul\":8099:8108   */\n      dup3\n        /* \"#utility.yul\":8090:8097   */\n      dup5\n        /* \"#utility.yul\":8086:8109   */\n      sub\n        /* \"#utility.yul\":8082:8114   */\n      slt\n        /* \"#utility.yul\":8079:8198   */\n      iszero\n      tag_219\n      jumpi\n        /* \"#utility.yul\":8117:8196   */\n      tag_220\n      tag_77\n      jump\t// in\n    tag_220:\n        /* \"#utility.yul\":8079:8198   */\n    tag_219:\n        /* \"#utility.yul\":8237:8238   */\n      0x00\n        /* \"#utility.yul\":8262:8315   */\n      tag_221\n        /* \"#utility.yul\":8307:8314   */\n      dup5\n        /* \"#utility.yul\":8298:8304   */\n      dup3\n        /* \"#utility.yul\":8287:8296   */\n      dup6\n        /* \"#utility.yul\":8283:8305   */\n      add\n        /* \"#utility.yul\":8262:8315   */\n      tag_104\n      jump\t// in\n    tag_221:\n        /* \"#utility.yul\":8252:8315   */\n      swap2\n      pop\n        /* \"#utility.yul\":8208:8325   */\n      pop\n        /* \"#utility.yul\":8003:8332   */\n      swap3\n      swap2\n      pop\n      pop\n      jump\t// out\n        /* \"#utility.yul\":8338:8560   */\n    tag_27:\n        /* \"#utility.yul\":8431:8435   */\n      0x00\n        /* \"#utility.yul\":8469:8471   */\n      0x20\n        /* \"#utility.yul\":8458:8467   */\n      dup3\n        /* \"#utility.yul\":8454:8472   */\n      add\n        /* \"#utility.yul\":8446:8472   */\n      swap1\n      pop\n        /* \"#utility.yul\":8482:8553   */\n      tag_223\n        /* \"#utility.yul\":8550:8551   */\n      0x00\n        /* \"#utility.yul\":8539:8548   */\n      dup4\n        /* \"#utility.yul\":8535:8552   */\n      add\n        /* \"#utility.yul\":8526:8532   */\n      dup5\n        /* \"#utility.yul\":8482:8553   */\n      tag_92\n      jump\t// in\n    tag_223:\n        /* \"#utility.yul\":8338:8560   */\n      swap3\n      swap2\n      pop\n      pop\n      jump\t// out\n        /* \"#utility.yul\":8566:8746   */\n    tag_105:\n        /* \"#utility.yul\":8614:8691   */\n      0x4e487b7100000000000000000000000000000000000000000000000000000000\n        /* \"#utility.yul\":8611:8612   */\n      0x00\n        /* \"#utility.yul\":8604:8692   */\n      mstore\n        /* \"#utility.yul\":8711:8715   */\n      0x11\n        /* \"#utility.yul\":8708:8709   */\n      0x04\n        /* \"#utility.yul\":8701:8716   */\n      mstore\n        /* \"#utility.yul\":8735:8739   */\n      0x24\n        /* \"#utility.yul\":8732:8733   */\n      0x00\n        /* \"#utility.yul\":8725:8740   */\n      revert\n        /* \"#utility.yul\":8752:8943   */\n    tag_30:\n        /* \"#utility.yul\":8792:8795   */\n      0x00\n        /* \"#utility.yul\":8811:8831   */\n      tag_226\n        /* \"#utility.yul\":8829:8830   */\n      dup3\n        /* \"#utility.yul\":8811:8831   */\n      tag_89\n      jump\t// in\n    tag_226:\n        /* \"#utility.yul\":8806:8831   */\n      swap2\n      pop\n        /* \"#utility.yul\":8845:8865   */\n      tag_227\n        /* \"#utility.yul\":8863:8864   */\n      dup4\n        /* \"#utility.yul\":8845:8865   */\n      tag_89\n      jump\t// in\n    tag_227:\n        /* \"#utility.yul\":8840:8865   */\n      swap3\n      pop\n        /* \"#utility.yul\":8888:8889   */\n      dup3\n        /* \"#utility.yul\":8885:8886   */\n      dup3\n        /* \"#utility.yul\":8881:8890   */\n      add\n        /* \"#utility.yul\":8874:8890   */\n      swap1\n      pop\n        /* \"#utility.yul\":8909:8912   */\n      dup1\n        /* \"#utility.yul\":8906:8907   */\n      dup3\n        /* \"#utility.yul\":8903:8913   */\n      gt\n        /* \"#utility.yul\":8900:8936   */\n      iszero\n      tag_228\n      jumpi\n        /* \"#utility.yul\":8916:8934   */\n      tag_229\n      tag_105\n      jump\t// in\n    tag_229:\n        /* \"#utility.yul\":8900:8936   */\n    tag_228:\n        /* \"#utility.yul\":8752:8943   */\n      swap3\n      swap2\n      pop\n      pop\n      jump\t// out\n        /* \"#utility.yul\":8949:9129   */\n    tag_106:\n        /* \"#utility.yul\":8997:9074   */\n      0x4e487b7100000000000000000000000000000000000000000000000000000000\n        /* \"#utility.yul\":8994:8995   */\n      0x00\n        /* \"#utility.yul\":8987:9075   */\n      mstore\n        /* \"#utility.yul\":9094:9098   */\n      0x22\n        /* \"#utility.yul\":9091:9092   */\n      0x04\n        /* \"#utility.yul\":9084:9099   */\n      mstore\n        /* \"#utility.yul\":9118:9122   */\n      0x24\n        /* \"#utility.yul\":9115:9116   */\n      0x00\n        /* \"#utility.yul\":9108:9123   */\n      revert\n        /* \"#utility.yul\":9135:9455   */\n    tag_43:\n        /* \"#utility.yul\":9179:9185   */\n      0x00\n        /* \"#utility.yul\":9216:9217   */\n      0x02\n        /* \"#utility.yul\":9210:9214   */\n      dup3\n        /* \"#utility.yul\":9206:9218   */\n      div\n        /* \"#utility.yul\":9196:9218   */\n      swap1\n      pop\n        /* \"#utility.yul\":9263:9264   */\n      0x01\n        /* \"#utility.yul\":9257:9261   */\n      dup3\n        /* \"#utility.yul\":9253:9265   */\n      and\n        /* \"#utility.yul\":9284:9302   */\n      dup1\n        /* \"#utility.yul\":9274:9355   */\n      tag_232\n      jumpi\n        /* \"#utility.yul\":9340:9344   */\n      0x7f\n        /* \"#utility.yul\":9332:9338   */\n      dup3\n        /* \"#utility.yul\":9328:9345   */\n      and\n        /* \"#utility.yul\":9318:9345   */\n      swap2\n      pop\n        /* \"#utility.yul\":9274:9355   */\n    tag_232:\n        /* \"#utility.yul\":9402:9404   */\n      0x20\n        /* \"#utility.yul\":9394:9400   */\n      dup3\n        /* \"#utility.yul\":9391:9405   */\n      lt\n        /* \"#utility.yul\":9371:9389   */\n      dup2\n        /* \"#utility.yul\":9368:9406   */\n      sub\n        /* \"#utility.yul\":9365:9449   */\n      tag_233\n      jumpi\n        /* \"#utility.yul\":9421:9439   */\n      tag_234\n      tag_106\n      jump\t// in\n    tag_234:\n        /* \"#utility.yul\":9365:9449   */\n    tag_233:\n        /* \"#utility.yul\":9186:9455   */\n      pop\n        /* \"#utility.yul\":9135:9455   */\n      swap2\n      swap1\n      pop\n      jump\t// out\n        /* \"#utility.yul\":9461:9602   */\n    tag_107:\n        /* \"#utility.yul\":9510:9514   */\n      0x00\n        /* \"#utility.yul\":9533:9536   */\n      dup2\n        /* \"#utility.yul\":9525:9536   */\n      swap1\n      pop\n        /* \"#utility.yul\":9556:9559   */\n      dup2\n        /* \"#utility.yul\":9553:9554   */\n      0x00\n        /* \"#utility.yul\":9546:9560   */\n      mstore\n        /* \"#utility.yul\":9590:9594   */\n      0x20\n        /* \"#utility.yul\":9587:9588   */\n      0x00\n        /* \"#utility.yul\":9577:9595   */\n      keccak256\n        /* \"#utility.yul\":9569:9595   */\n      swap1\n      pop\n        /* \"#utility.yul\":9461:9602   */\n      swap2\n      swap1\n      pop\n      jump\t// out\n        /* \"#utility.yul\":9608:9701   */\n    tag_108:\n        /* \"#utility.yul\":9645:9651   */\n      0x00\n        /* \"#utility.yul\":9692:9694   */\n      0x20\n        /* \"#utility.yul\":9687:9689   */\n      0x1f\n        /* \"#utility.yul\":9680:9685   */\n      dup4\n        /* \"#utility.yul\":9676:9690   */\n      add\n        /* \"#utility.yul\":9672:9695   */\n      div\n        /* \"#utility.yul\":9662:9695   */\n      swap1\n      pop\n        /* \"#utility.yul\":9608:9701   */\n      swap2\n      swap1\n      pop\n      jump\t// out\n        /* \"#utility.yul\":9707:9814   */\n    tag_109:\n        /* \"#utility.yul\":9751:9759   */\n      0x00\n        /* \"#utility.yul\":9801:9806   */\n      dup3\n        /* \"#utility.yul\":9795:9799   */\n      dup3\n        /* \"#utility.yul\":9791:9807   */\n      shl\n        /* \"#utility.yul\":9770:9807   */\n      swap1\n      pop\n        /* \"#utility.yul\":9707:9814   */\n      swap3\n      swap2\n      pop\n      pop\n      jump\t// out\n        /* \"#utility.yul\":9820:10213   */\n    tag_110:\n        /* \"#utility.yul\":9889:9895   */\n      0x00\n        /* \"#utility.yul\":9939:9940   */\n      0x08\n        /* \"#utility.yul\":9927:9937   */\n      dup4\n        /* \"#utility.yul\":9923:9941   */\n      mul\n        /* \"#utility.yul\":9962:10059   */\n      tag_239\n        /* \"#utility.yul\":9992:10058   */\n      0xffffffffffffffffffffffffffffffffffffffffffffffffffffffffffffffff\n        /* \"#utility.yul\":9981:9990   */\n      dup3\n        /* \"#utility.yul\":9962:10059   */\n      tag_109\n      jump\t// in\n    tag_239:\n        /* \"#utility.yul\":10080:10119   */\n      tag_240\n        /* \"#utility.yul\":10110:10118   */\n      dup7\n        /* \"#utility.yul\":10099:10108   */\n      dup4\n        /* \"#utility.yul\":10080:10119   */\n      tag_109\n      jump\t// in\n    tag_240:\n        /* \"#utility.yul\":10068:10119   */\n      swap6\n      pop\n        /* \"#utility.yul\":10152:10156   */\n      dup1\n        /* \"#utility.yul\":10148:10157   */\n      not\n        /* \"#utility.yul\":10141:10146   */\n      dup5\n        /* \"#utility.yul\":10137:10158   */\n      and\n        /* \"#utility.yul\":10128:10158   */\n      swap4\n      pop\n        /* \"#utility.yul\":10201:10205   */\n      dup1\n        /* \"#utility.yul\":10191:10199   */\n      dup7\n        /* \"#utility.yul\":10187:10206   */\n      and\n        /* \"#utility.yul\":10180:10185   */\n      dup5\n        /* \"#utility.yul\":10177:10207   */\n      or\n        /* \"#utility.yul\":10167:10207   */\n      swap3\n      pop\n        /* \"#utility.yul\":9896:10213   */\n      pop\n      pop\n        /* \"#utility.yul\":9820:10213   */\n      swap4\n      swap3\n      pop\n      pop\n      pop\n      jump\t// out\n        /* \"#utility.yul\":10219:10279   */\n    tag_111:\n        /* \"#utility.yul\":10247:10250   */\n      0x00\n        /* \"#utility.yul\":10268:10273   */\n      dup2\n        /* \"#utility.yul\":10261:10273   */\n      swap1\n      pop\n        /* \"#utility.yul\":10219:10279   */\n      swap2\n      swap1\n      pop\n      jump\t// out\n        /* \"#utility.yul\":10285:10427   */\n    tag_112:\n        /* \"#utility.yul\":10335:10344   */\n      0x00\n        /* \"#utility.yul\":10368:10421   */\n      tag_243\n        /* \"#utility.yul\":10386:10420   */\n      tag_244\n        /* \"#utility.yul\":10395:10419   */\n      tag_245\n        /* \"#utility.yul\":10413:10418   */\n      dup5\n        /* \"#utility.yul\":10395:10419   */\n      tag_89\n      jump\t// in\n    tag_245:\n        /* \"#utility.yul\":10386:10420   */\n      tag_111\n      jump\t// in\n    tag_244:\n        /* \"#utility.yul\":10368:10421   */\n      tag_89\n      jump\t// in\n    tag_243:\n        /* \"#utility.yul\":10355:10421   */\n      swap1\n      pop\n        /* \"#utility.yul\":10285:10427   */\n      swap2\n      swap1\n      pop\n      jump\t// out\n        /* \"#utility.yul\":10433:10508   */\n    tag_113:\n        /* \"#utility.yul\":10476:10479   */\n      0x00\n        /* \"#utility.yul\":10497:10502   */\n      dup2\n        /* \"#utility.yul\":10490:10502   */\n      swap1\n      pop\n        /* \"#utility.yul\":10433:10508   */\n      swap2\n      swap1\n      pop\n      jump\t// out\n        /* \"#utility.yul\":10514:10783   */\n    tag_114:\n        /* \"#utility.yul\":10624:10663   */\n      tag_248\n        /* \"#utility.yul\":10655:10662   */\n      dup4\n        /* \"#utility.yul\":10624:10663   */\n      tag_112\n      jump\t// in\n    tag_248:\n        /* \"#utility.yul\":10685:10776   */\n      tag_249\n        /* \"#utility.yul\":10734:10775   */\n      tag_250\n        /* \"#utility.yul\":10758:10774   */\n      dup3\n        /* \"#utility.yul\":10734:10775   */\n      tag_113\n      jump\t// in\n    tag_250:\n        /* \"#utility.yul\":10726:10732   */\n      dup5\n        /* \"#utility.yul\":10719:10723   */\n      dup5\n        /* \"#utility.yul\":10713:10724   */\n      sload\n        /* \"#utility.yul\":10685:10776   */\n      tag_110\n      jump\t// in\n    tag_249:\n        /* \"#utility.yul\":10679:10683   */\n      dup3\n        /* \"#utility.yul\":10672:10777   */\n      sstore\n        /* \"#utility.yul\":10590:10783   */\n      pop\n        /* \"#utility.yul\":10514:10783   */\n      pop\n      pop\n      pop\n      jump\t// out\n        /* \"#utility.yul\":10789:10862   */\n    tag_115:\n        /* \"#utility.yul\":10834:10837   */\n      0x00\n        /* \"#utility.yul\":10789:10862   */\n      swap1\n      jump\t// out\n        /* \"#utility.yul\":10868:11057   */\n    tag_116:\n        /* \"#utility.yul\":10945:10977   */\n      tag_253\n      tag_115\n      jump\t// in\n    tag_253:\n        /* \"#utility.yul\":10986:11051   */\n      tag_254\n        /* \"#utility.yul\":11044:11050   */\n      dup2\n        /* \"#utility.yul\":11036:11042   */\n      dup5\n        /* \"#utility.yul\":11030:11034   */\n      dup5\n        /* \"#utility.yul\":10986:11051   */\n      tag_114\n      jump\t// in\n    tag_254:\n        /* \"#utility.yul\":10921:11057   */\n      pop\n        /* \"#utility.yul\":10868:11057   */\n      pop\n      pop\n      jump\t// out\n        /* \"#utility.yul\":11063:11249   */\n    tag_117:\n        /* \"#utility.yul\":11123:11243   */\n    tag_256:\n        /* \"#utility.yul\":11140:11143   */\n      dup2\n        /* \"#utility.yul\":11133:11138   */\n      dup2\n        /* \"#utility.yul\":11130:11144   */\n      lt\n        /* \"#utility.yul\":11123:11243   */\n      iszero\n      tag_258\n      jumpi\n        /* \"#utility.yul\":11194:11233   */\n      tag_259\n        /* \"#utility.yul\":11231:11232   */\n      0x00\n        /* \"#utility.yul\":11224:11229   */\n      dup3\n        /* \"#utility.yul\":11194:11233   */\n      tag_116\n      jump\t// in\n    tag_259:\n        /* \"#utility.yul\":11167:11168   */\n      0x01\n        /* \"#utility.yul\":11160:11165   */\n      dup2\n        /* \"#utility.yul\":11156:11169   */\n      add\n        /* \"#utility.yul\":11147:11169   */\n      swap1\n      pop\n        /* \"#utility.yul\":11123:11243   */\n      jump(tag_256)\n    tag_258:\n        /* \"#utility.yul\":11063:11249   */\n      pop\n      pop\n      jump\t// out\n        /* \"#utility.yul\":11255:11798   */\n    tag_118:\n        /* \"#utility.yul\":11356:11358   */\n      0x1f\n        /* \"#utility.yul\":11351:11354   */\n      dup3\n        /* \"#utility.yul\":11348:11359   */\n      gt\n        /* \"#utility.yul\":11345:11791   */\n      iszero\n      tag_261\n      jumpi\n        /* \"#utility.yul\":11390:11428   */\n      tag_262\n        /* \"#utility.yul\":11422:11427   */\n      dup2\n        /* \"#utility.yul\":11390:11428   */\n      tag_107\n      jump\t// in\n    tag_262:\n        /* \"#utility.yul\":11474:11503   */\n      tag_263\n        /* \"#utility.yul\":11492:11502   */\n      dup5\n        /* \"#utility.yul\":11474:11503   */\n      tag_108\n      jump\t// in\n    tag_263:\n        /* \"#utility.yul\":11464:11472   */\n      dup2\n        /* \"#utility.yul\":11460:11504   */\n      add\n        /* \"#utility.yul\":11657:11659   */\n      0x20\n        /* \"#utility.yul\":11645:11655   */\n      dup6\n        /* \"#utility.yul\":11642:11660   */\n      lt\n        /* \"#utility.yul\":11639:11688   */\n      iszero\n      tag_264\n      jumpi\n        /* \"#utility.yul\":11678:11686   */\n      dup2\n        /* \"#utility.yul\":11663:11686   */\n      swap1\n      pop\n        /* \"#utility.yul\":11639:11688   */\n    tag_264:\n        /* \"#utility.yul\":11701:11781   */\n      tag_265\n        /* \"#utility.yul\":11757:11779   */\n      tag_266\n        /* \"#utility.yul\":11775:11778   */\n      dup6\n        /* \"#utility.yul\":11757:11779   */\n      tag_108\n      jump\t// in\n    tag_266:\n        /* \"#utility.yul\":11747:11755   */\n      dup4\n        /* \"#utility.yul\":11743:11780   */\n      add\n        /* \"#utility.yul\":11730:11741   */\n      dup3\n        /* \"#utility.yul\":11701:11781   */\n      tag_117\n      jump\t// in\n    tag_265:\n        /* \"#utility.yul\":11360:11791   */\n      pop\n      pop\n        /* \"#utility.yul\":11345:11791   */\n    tag_261:\n        /* \"#utility.yul\":11255:11798   */\n      pop\n      pop\n      pop\n      jump\t// out\n        /* \"#utility.yul\":11804:11921   */\n    tag_119:\n        /* \"#utility.yul\":11858:11866   */\n      0x00\n        /* \"#utility.yul\":11908:11913   */\n      dup3\n        /* \"#utility.yul\":11902:11906   */\n      dup3\n        /* \"#utility.yul\":11898:11914   */\n      shr\n        /* \"#utility.yul\":11877:11914   */\n      swap1\n      pop\n        /* \"#utility.yul\":11804:11921   */\n      swap3\n      swap2\n      pop\n      pop\n      jump\t// out\n        /* \"#utility.yul\":11927:12096   */\n    tag_120:\n        /* \"#utility.yul\":11971:11977   */\n      0x00\n        /* \"#utility.yul\":12004:12055   */\n      tag_269\n        /* \"#utility.yul\":12052:12053   */\n      0x00\n        /* \"#utility.yul\":12048:12054   */\n      not\n        /* \"#utility.yul\":12040:12045   */\n      dup5\n        /* \"#utility.yul\":12037:12038   */\n      0x08\n        /* \"#utility.yul\":12033:12046   */\n      mul\n        /* \"#utility.yul\":12004:12055   */\n      tag_119\n      jump\t// in\n    tag_269:\n        /* \"#utility.yul\":12000:12056   */\n      not\n        /* \"#utility.yul\":12085:12089   */\n      dup1\n        /* \"#utility.yul\":12079:12083   */\n      dup4\n        /* \"#utility.yul\":12075:12090   */\n      and\n        /* \"#utility.yul\":12065:12090   */\n      swap2\n      pop\n        /* \"#utility.yul\":11978:12096   */\n      pop\n        /* \"#utility.yul\":11927:12096   */\n      swap3\n      swap2\n      pop\n      pop\n      jump\t// out\n        /* \"#utility.yul\":12101:12396   */\n    tag_121:\n        /* \"#utility.yul\":12177:12181   */\n      0x00\n        /* \"#utility.yul\":12323:12352   */\n      tag_271\n        /* \"#utility.yul\":12348:12351   */\n      dup4\n        /* \"#utility.yul\":12342:12346   */\n      dup4\n        /* \"#utility.yul\":12323:12352   */\n      tag_120\n      jump\t// in\n    tag_271:\n        /* \"#utility.yul\":12315:12352   */\n      swap2\n      pop\n        /* \"#utility.yul\":12385:12388   */\n      dup3\n        /* \"#utility.yul\":12382:12383   */\n      0x02\n        /* \"#utility.yul\":12378:12389   */\n      mul\n        /* \"#utility.yul\":12372:12376   */\n      dup3\n        /* \"#utility.yul\":12369:12390   */\n      or\n        /* \"#utility.yul\":12361:12390   */\n      swap1\n      pop\n        /* \"#utility.yul\":12101:12396   */\n      swap3\n      swap2\n      pop\n      pop\n      jump\t// out\n        /* \"#utility.yul\":12401:13796   */\n    tag_33:\n        /* \"#utility.yul\":12518:12555   */\n      tag_273\n        /* \"#utility.yul\":12551:12554   */\n      dup3\n        /* \"#utility.yul\":12518:12555   */\n      tag_93\n      jump\t// in\n    tag_273:\n        /* \"#utility.yul\":12620:12638   */\n      0xffffffffffffffff\n        /* \"#utility.yul\":12612:12618   */\n      dup2\n        /* \"#utility.yul\":12609:12639   */\n      gt\n        /* \"#utility.yul\":12606:12662   */\n      iszero\n      tag_274\n      jumpi\n        /* \"#utility.yul\":12642:12660   */\n      tag_275\n      tag_82\n      jump\t// in\n    tag_275:\n        /* \"#utility.yul\":12606:12662   */\n    tag_274:\n        /* \"#utility.yul\":12686:12724   */\n      tag_276\n        /* \"#utility.yul\":12718:12722   */\n      dup3\n        /* \"#utility.yul\":12712:12723   */\n      sload\n        /* \"#utility.yul\":12686:12724   */\n      tag_43\n      jump\t// in\n    tag_276:\n        /* \"#utility.yul\":12771:12838   */\n      tag_277\n        /* \"#utility.yul\":12831:12837   */\n      dup3\n        /* \"#utility.yul\":12823:12829   */\n      dup3\n        /* \"#utility.yul\":12817:12821   */\n      dup6\n        /* \"#utility.yul\":12771:12838   */\n      tag_118\n      jump\t// in\n    tag_277:\n        /* \"#utility.yul\":12865:12866   */\n      0x00\n        /* \"#utility.yul\":12889:12893   */\n      0x20\n        /* \"#utility.yul\":12876:12893   */\n      swap1\n      pop\n        /* \"#utility.yul\":12921:12923   */\n      0x1f\n        /* \"#utility.yul\":12913:12919   */\n      dup4\n        /* \"#utility.yul\":12910:12924   */\n      gt\n        /* \"#utility.yul\":12938:12939   */\n      0x01\n        /* \"#utility.yul\":12933:13551   */\n      dup2\n      eq\n      tag_279\n      jumpi\n        /* \"#utility.yul\":13595:13596   */\n      0x00\n        /* \"#utility.yul\":13612:13618   */\n      dup5\n        /* \"#utility.yul\":13609:13686   */\n      iszero\n      tag_280\n      jumpi\n        /* \"#utility.yul\":13661:13670   */\n      dup3\n        /* \"#utility.yul\":13656:13659   */\n      dup8\n        /* \"#utility.yul\":13652:13671   */\n      add\n        /* \"#utility.yul\":13646:13672   */\n      mload\n        /* \"#utility.yul\":13637:13672   */\n      swap1\n      pop\n        /* \"#utility.yul\":13609:13686   */\n    tag_280:\n        /* \"#utility.yul\":13712:13779   */\n      tag_281\n        /* \"#utility.yul\":13772:13778   */\n      dup6\n        /* \"#utility.yul\":13765:13770   */\n      dup3\n        /* \"#utility.yul\":13712:13779   */\n      tag_121\n      jump\t// in\n    tag_281:\n        /* \"#utility.yul\":13706:13710   */\n      dup7\n        /* \"#utility.yul\":13699:13780   */\n      sstore\n        /* \"#utility.yul\":13568:13790   */\n      pop\n        /* \"#utility.yul\":12903:13790   */\n      jump(tag_278)\n        /* \"#utility.yul\":12933:13551   */\n    tag_279:\n        /* \"#utility.yul\":12985:12989   */\n      0x1f\n        /* \"#utility.yul\":12981:12990   */\n      not\n        /* \"#utility.yul\":12973:12979   */\n      dup5\n        /* \"#utility.yul\":12969:12991   */\n      and\n        /* \"#utility.yul\":13019:13056   */\n      tag_282\n        /* \"#utility.yul\":13051:13055   */\n      dup7\n        /* \"#utility.yul\":13019:13056   */\n      tag_107\n      jump\t// in\n    tag_282:\n        /* \"#utility.yul\":13078:13079   */\n      0x00\n        /* \"#utility.yul\":13092:13300   */\n    tag_283:\n        /* \"#utility.yul\":13106:13113   */\n      dup3\n        /* \"#utility.yul\":13103:13104   */\n      dup2\n        /* \"#utility.yul\":13100:13114   */\n      lt\n        /* \"#utility.yul\":13092:13300   */\n      iszero\n      tag_285\n      jumpi\n        /* \"#utility.yul\":13185:13194   */\n      dup5\n        /* \"#utility.yul\":13180:13183   */\n      dup10\n        /* \"#utility.yul\":13176:13195   */\n      add\n        /* \"#utility.yul\":13170:13196   */\n      mload\n        /* \"#utility.yul\":13162:13168   */\n      dup3\n        /* \"#utility.yul\":13155:13197   */\n      sstore\n        /* \"#utility.yul\":13236:13237   */\n      0x01\n        /* \"#utility.yul\":13228:13234   */\n      dup3\n        /* \"#utility.yul\":13224:13238   */\n      add\n        /* \"#utility.yul\":13214:13238   */\n      swap2\n      pop\n        /* \"#utility.yul\":13283:13285   */\n      0x20\n        /* \"#utility.yul\":13272:13281   */\n      dup6\n        /* \"#utility.yul\":13268:13286   */\n      add\n        /* \"#utility.yul\":13255:13286   */\n      swap5\n      pop\n        /* \"#utility.yul\":13129:13133   */\n      0x20\n        /* \"#utility.yul\":13126:13127   */\n      dup2\n        /* \"#utility.yul\":13122:13134   */\n      add\n        /* \"#utility.yul\":13117:13134   */\n      swap1\n      pop\n        /* \"#utility.yul\":13092:13300   */\n      jump(tag_283)\n    tag_285:\n        /* \"#utility.yul\":13328:13334   */\n      dup7\n        /* \"#utility.yul\":13319:13326   */\n      dup4\n        /* \"#utility.yul\":13316:13335   */\n      lt\n        /* \"#utility.yul\":13313:13492   */\n      iszero\n      tag_286\n      jumpi\n        /* \"#utility.yul\":13386:13395   */\n      dup5\n        /* \"#utility.yul\":13381:13384   */\n      dup10\n        /* \"#utility.yul\":13377:13396   */\n      add\n        /* \"#utility.yul\":13371:13397   */\n      mload\n        /* \"#utility.yul\":13429:13477   */\n      tag_287\n        /* \"#utility.yul\":13471:13475   */\n      0x1f\n        /* \"#utility.yul\":13463:13469   */\n      dup10\n        /* \"#utility.yul\":13459:13476   */\n      and\n        /* \"#utility.yul\":13448:13457   */\n      dup3\n        /* \"#utility.yul\":13429:13477   */\n      tag_120\n      jump\t// in\n    tag_287:\n        /* \"#utility.yul\":13421:13427   */\n      dup4\n        /* \"#utility.yul\":13414:13478   */\n      sstore\n        /* \"#utility.yul\":13336:13492   */\n      pop\n        /* \"#utility.yul\":13313:13492   */\n    tag_286:\n        /* \"#utility.yul\":13538:13539   */\n      0x01\n        /* \"#utility.yul\":13534:13535   */\n      0x02\n        /* \"#utility.yul\":13526:13532   */\n      dup9\n        /* \"#utility.yul\":13522:13536   */\n      mul\n        /* \"#utility.yul\":13518:13540   */\n      add\n        /* \"#utility.yul\":13512:13516   */\n      dup9\n        /* \"#utility.yul\":13505:13541   */\n      sstore\n        /* \"#utility.yul\":12940:13551   */\n      pop\n      pop\n      pop\n        /* \"#utility.yul\":12903:13790   */\n    tag_278:\n      pop\n        /* \"#utility.yul\":12493:13796   */\n      pop\n      pop\n      pop\n        /* \"#utility.yul\":12401:13796   */\n      pop\n      pop\n      jump\t// out\n        /* \"#utility.yul\":13802:13996   */\n    tag_36:\n        /* \"#utility.yul\":13842:13846   */\n      0x00\n        /* \"#utility.yul\":13862:13882   */\n      tag_289\n        /* \"#utility.yul\":13880:13881   */\n      dup3\n        /* \"#utility.yul\":13862:13882   */\n      tag_89\n      jump\t// in\n    tag_289:\n        /* \"#utility.yul\":13857:13882   */\n      swap2\n      pop\n        /* \"#utility.yul\":13896:13916   */\n      tag_290\n        /* \"#utility.yul\":13914:13915   */\n      dup4\n        /* \"#utility.yul\":13896:13916   */\n      tag_89\n      jump\t// in\n    tag_290:\n        /* \"#utility.yul\":13891:13916   */\n      swap3\n      pop\n        /* \"#utility.yul\":13940:13941   */\n      dup3\n        /* \"#utility.yul\":13937:13938   */\n      dup3\n        /* \"#utility.yul\":13933:13942   */\n      sub\n        /* \"#utility.yul\":13925:13942   */\n      swap1\n      pop\n        /* \"#utility.yul\":13964:13965   */\n      dup2\n        /* \"#utility.yul\":13958:13962   */\n      dup2\n        /* \"#utility.yul\":13955:13966   */\n      gt\n        /* \"#utility.yul\":13952:13989   */\n      iszero\n      tag_291\n      jumpi\n        /* \"#utility.yul\":13969:13987   */\n      tag_292\n      tag_105\n      jump\t// in\n    tag_292:\n        /* \"#utility.yul\":13952:13989   */\n    tag_291:\n        /* \"#utility.yul\":13802:13996   */\n      swap3\n      swap2\n      pop\n      pop\n      jump\t// out\n        /* \"#utility.yul\":14002:14646   */\n    tag_39:\n        /* \"#utility.yul\":14199:14203   */\n      0x00\n        /* \"#utility.yul\":14237:14240   */\n      0x80\n        /* \"#utility.yul\":14226:14235   */\n      dup3\n        /* \"#utility.yul\":14222:14241   */\n      add\n        /* \"#utility.yul\":14214:14241   */\n      swap1\n      pop\n        /* \"#utility.yul\":14251:14322   */\n      tag_294\n        /* \"#utility.yul\":14319:14320   */\n      0x00\n        /* \"#utility.yul\":14308:14317   */\n      dup4\n        /* \"#utility.yul\":14304:14321   */\n      add\n        /* \"#utility.yul\":14295:14301   */\n      dup8\n        /* \"#utility.yul\":14251:14322   */\n      tag_92\n      jump\t// in\n    tag_294:\n        /* \"#utility.yul\":14369:14378   */\n      dup2\n        /* \"#utility.yul\":14363:14367   */\n      dup2\n        /* \"#utility.yul\":14359:14379   */\n      sub\n        /* \"#utility.yul\":14354:14356   */\n      0x20\n        /* \"#utility.yul\":14343:14352   */\n      dup4\n        /* \"#utility.yul\":14339:14357   */\n      add\n        /* \"#utility.yul\":14332:14380   */\n      mstore\n        /* \"#utility.yul\":14397:14475   */\n      tag_295\n        /* \"#utility.yul\":14470:14474   */\n      dup2\n        /* \"#utility.yul\":14461:14467   */\n      dup7\n        /* \"#utility.yul\":14397:14475   */\n      tag_96\n      jump\t// in\n    tag_295:\n        /* \"#utility.yul\":14389:14475   */\n      swap1\n      pop\n        /* \"#utility.yul\":14485:14557   */\n      tag_296\n        /* \"#utility.yul\":14553:14555   */\n      0x40\n        /* \"#utility.yul\":14542:14551   */\n      dup4\n        /* \"#utility.yul\":14538:14556   */\n      add\n        /* \"#utility.yul\":14529:14535   */\n      dup6\n        /* \"#utility.yul\":14485:14557   */\n      tag_92\n      jump\t// in\n    tag_296:\n        /* \"#utility.yul\":14567:14639   */\n      tag_297\n        /* \"#utility.yul\":14635:14637   */\n      0x60\n        /* \"#utility.yul\":14624:14633   */\n      dup4\n        /* \"#utility.yul\":14620:14638   */\n      add\n        /* \"#utility.yul\":14611:14617   */\n      dup5\n        /* \"#utility.yul\":14567:14639   */\n      tag_92\n      jump\t// in\n    tag_297:\n        /* \"#utility.yul\":14002:14646   */\n      swap6\n      swap5\n      pop\n      pop\n      pop\n      pop\n      pop\n      jump\t// out\n        /* \"#utility.yul\":14652:14832   */\n    tag_56:\n        /* \"#utility.yul\":14700:14777   */\n      0x4e487b7100000000000000000000000000000000000000000000000000000000\n        /* \"#utility.yul\":14697:14698   */\n      0x00\n        /* \"#utility.yul\":14690:14778   */\n      mstore\n        /* \"#utility.yul\":14797:14801   */\n      0x32\n        /* \"#utility.yul\":14794:14795   */\n      0x04\n        /* \"#utility.yul\":14787:14802   */\n      mstore\n        /* \"#utility.yul\":14821:14825   */\n      0x24\n        /* \"#utility.yul\":14818:14819   */\n      0x00\n        /* \"#utility.yul\":14811:14826   */\n      revert\n        /* \"#utility.yul\":14838:15010   */\n    tag_122:\n        /* \"#utility.yul\":14978:15002   */\n      0x41756374696f6e206973206e6f74206163746976652e00000000000000000000\n        /* \"#utility.yul\":14974:14975   */\n      0x00\n        /* \"#utility.yul\":14966:14972   */\n      dup3\n        /* \"#utility.yul\":14962:14976   */\n      add\n        /* \"#utility.yul\":14955:15003   */\n      mstore\n        /* \"#utility.yul\":14838:15010   */\n      pop\n      jump\t// out\n        /* \"#utility.yul\":15016:15382   */\n    tag_123:\n        /* \"#utility.yul\":15158:15161   */\n      0x00\n        /* \"#utility.yul\":15179:15246   */\n      tag_301\n        /* \"#utility.yul\":15243:15245   */\n      0x16\n        /* \"#utility.yul\":15238:15241   */\n      dup4\n        /* \"#utility.yul\":15179:15246   */\n      tag_94\n      jump\t// in\n    tag_301:\n        /* \"#utility.yul\":15172:15246   */\n      swap2\n      pop\n        /* \"#utility.yul\":15255:15348   */\n      tag_302\n        /* \"#utility.yul\":15344:15347   */\n      dup3\n        /* \"#utility.yul\":15255:15348   */\n      tag_122\n      jump\t// in\n    tag_302:\n        /* \"#utility.yul\":15373:15375   */\n      0x20\n        /* \"#utility.yul\":15368:15371   */\n      dup3\n        /* \"#utility.yul\":15364:15376   */\n      add\n        /* \"#utility.yul\":15357:15376   */\n      swap1\n      pop\n        /* \"#utility.yul\":15016:15382   */\n      swap2\n      swap1\n      pop\n      jump\t// out\n        /* \"#utility.yul\":15388:15807   */\n    tag_60:\n        /* \"#utility.yul\":15554:15558   */\n      0x00\n        /* \"#utility.yul\":15592:15594   */\n      0x20\n        /* \"#utility.yul\":15581:15590   */\n      dup3\n        /* \"#utility.yul\":15577:15595   */\n      add\n        /* \"#utility.yul\":15569:15595   */\n      swap1\n      pop\n        /* \"#utility.yul\":15641:15650   */\n      dup2\n        /* \"#utility.yul\":15635:15639   */\n      dup2\n        /* \"#utility.yul\":15631:15651   */\n      sub\n        /* \"#utility.yul\":15627:15628   */\n      0x00\n        /* \"#utility.yul\":15616:15625   */\n      dup4\n        /* \"#utility.yul\":15612:15629   */\n      add\n        /* \"#utility.yul\":15605:15652   */\n      mstore\n        /* \"#utility.yul\":15669:15800   */\n      tag_304\n        /* \"#utility.yul\":15795:15799   */\n      dup2\n        /* \"#utility.yul\":15669:15800   */\n      tag_123\n      jump\t// in\n    tag_304:\n        /* \"#utility.yul\":15661:15800   */\n      swap1\n      pop\n        /* \"#utility.yul\":15388:15807   */\n      swap2\n      swap1\n      pop\n      jump\t// out\n        /* \"#utility.yul\":15813:15981   */\n    tag_124:\n        /* \"#utility.yul\":15953:15973   */\n      0x41756374696f6e2068617320656e6465642e0000000000000000000000000000\n        /* \"#utility.yul\":15949:15950   */\n      0x00\n        /* \"#utility.yul\":15941:15947   */\n      dup3\n        /* \"#utility.yul\":15937:15951   */\n      add\n        /* \"#utility.yul\":15930:15974   */\n      mstore\n        /* \"#utility.yul\":15813:15981   */\n      pop\n      jump\t// out\n        /* \"#utility.yul\":15987:16353   */\n    tag_125:\n        /* \"#utility.yul\":16129:16132   */\n      0x00\n        /* \"#utility.yul\":16150:16217   */\n      tag_307\n        /* \"#utility.yul\":16214:16216   */\n      0x12\n        /* \"#utility.yul\":16209:16212   */\n      dup4\n        /* \"#utility.yul\":16150:16217   */\n      tag_94\n      jump\t// in\n    tag_307:\n        /* \"#utility.yul\":16143:16217   */\n      swap2\n      pop\n        /* \"#utility.yul\":16226:16319   */\n      tag_308\n        /* \"#utility.yul\":16315:16318   */\n      dup3\n        /* \"#utility.yul\":16226:16319   */\n      tag_124\n      jump\t// in\n    tag_308:\n        /* \"#utility.yul\":16344:16346   */\n      0x20\n        /* \"#utility.yul\":16339:16342   */\n      dup3\n        /* \"#utility.yul\":16335:16347   */\n      add\n        /* \"#utility.yul\":16328:16347   */\n      swap1\n      pop\n        /* \"#utility.yul\":15987:16353   */\n      swap2\n      swap1\n      pop\n      jump\t// out\n        /* \"#utility.yul\":16359:16778   */\n    tag_63:\n        /* \"#utility.yul\":16525:16529   */\n      0x00\n        /* \"#utility.yul\":16563:16565   */\n      0x20\n        /* \"#utility.yul\":16552:16561   */\n      dup3\n        /* \"#utility.yul\":16548:16566   */\n      add\n        /* \"#utility.yul\":16540:16566   */\n      swap1\n      pop\n        /* \"#utility.yul\":16612:16621   */\n      dup2\n        /* \"#utility.yul\":16606:16610   */\n      dup2\n        /* \"#utility.yul\":16602:16622   */\n      sub\n        /* \"#utility.yul\":16598:16599   */\n      0x00\n        /* \"#utility.yul\":16587:16596   */\n      dup4\n        /* \"#utility.yul\":16583:16600   */\n      add\n        /* \"#utility.yul\":16576:16623   */\n      mstore\n        /* \"#utility.yul\":16640:16771   */\n      tag_310\n        /* \"#utility.yul\":16766:16770   */\n      dup2\n        /* \"#utility.yul\":16640:16771   */\n      tag_125\n      jump\t// in\n    tag_310:\n        /* \"#utility.yul\":16632:16771   */\n      swap1\n      pop\n        /* \"#utility.yul\":16359:16778   */\n      swap2\n      swap1\n      pop\n      jump\t// out\n        /* \"#utility.yul\":16784:17008   */\n    tag_126:\n        /* \"#utility.yul\":16924:16958   */\n      0x42696420616d6f756e74206d7573742062652067726561746572207468616e20\n        /* \"#utility.yul\":16920:16921   */\n      0x00\n        /* \"#utility.yul\":16912:16918   */\n      dup3\n        /* \"#utility.yul\":16908:16922   */\n      add\n        /* \"#utility.yul\":16901:16959   */\n      mstore\n        /* \"#utility.yul\":16993:17000   */\n      0x7072696365000000000000000000000000000000000000000000000000000000\n        /* \"#utility.yul\":16988:16990   */\n      0x20\n        /* \"#utility.yul\":16980:16986   */\n      dup3\n        /* \"#utility.yul\":16976:16991   */\n      add\n        /* \"#utility.yul\":16969:17001   */\n      mstore\n        /* \"#utility.yul\":16784:17008   */\n      pop\n      jump\t// out\n        /* \"#utility.yul\":17014:17380   */\n    tag_127:\n        /* \"#utility.yul\":17156:17159   */\n      0x00\n        /* \"#utility.yul\":17177:17244   */\n      tag_313\n        /* \"#utility.yul\":17241:17243   */\n      0x25\n        /* \"#utility.yul\":17236:17239   */\n      dup4\n        /* \"#utility.yul\":17177:17244   */\n      tag_94\n      jump\t// in\n    tag_313:\n        /* \"#utility.yul\":17170:17244   */\n      swap2\n      pop\n        /* \"#utility.yul\":17253:17346   */\n      tag_314\n        /* \"#utility.yul\":17342:17345   */\n      dup3\n        /* \"#utility.yul\":17253:17346   */\n      tag_126\n      jump\t// in\n    tag_314:\n        /* \"#utility.yul\":17371:17373   */\n      0x40\n        /* \"#utility.yul\":17366:17369   */\n      dup3\n        /* \"#utility.yul\":17362:17374   */\n      add\n        /* \"#utility.yul\":17355:17374   */\n      swap1\n      pop\n        /* \"#utility.yul\":17014:17380   */\n      swap2\n      swap1\n      pop\n      jump\t// out\n        /* \"#utility.yul\":17386:17805   */\n    tag_66:\n        /* \"#utility.yul\":17552:17556   */\n      0x00\n        /* \"#utility.yul\":17590:17592   */\n      0x20\n        /* \"#utility.yul\":17579:17588   */\n      dup3\n        /* \"#utility.yul\":17575:17593   */\n      add\n        /* \"#utility.yul\":17567:17593   */\n      swap1\n      pop\n        /* \"#utility.yul\":17639:17648   */\n      dup2\n        /* \"#utility.yul\":17633:17637   */\n      dup2\n        /* \"#utility.yul\":17629:17649   */\n      sub\n        /* \"#utility.yul\":17625:17626   */\n      0x00\n        /* \"#utility.yul\":17614:17623   */\n      dup4\n        /* \"#utility.yul\":17610:17627   */\n      add\n        /* \"#utility.yul\":17603:17650   */\n      mstore\n        /* \"#utility.yul\":17667:17798   */\n      tag_316\n        /* \"#utility.yul\":17793:17797   */\n      dup2\n        /* \"#utility.yul\":17667:17798   */\n      tag_127\n      jump\t// in\n    tag_316:\n        /* \"#utility.yul\":17659:17798   */\n      swap1\n      pop\n        /* \"#utility.yul\":17386:17805   */\n      swap2\n      swap1\n      pop\n      jump\t// out\n        /* \"#utility.yul\":17811:17929   */\n    tag_128:\n        /* \"#utility.yul\":17898:17922   */\n      tag_318\n        /* \"#utility.yul\":17916:17921   */\n      dup2\n        /* \"#utility.yul\":17898:17922   */\n      tag_102\n      jump\t// in\n    tag_318:\n        /* \"#utility.yul\":17893:17896   */\n      dup3\n        /* \"#utility.yul\":17886:17923   */\n      mstore\n        /* \"#utility.yul\":17811:17929   */\n      pop\n      pop\n      jump\t// out\n        /* \"#utility.yul\":17935:18377   */\n    tag_75:\n        /* \"#utility.yul\":18084:18088   */\n      0x00\n        /* \"#utility.yul\":18122:18124   */\n      0x60\n        /* \"#utility.yul\":18111:18120   */\n      dup3\n        /* \"#utility.yul\":18107:18125   */\n      add\n        /* \"#utility.yul\":18099:18125   */\n      swap1\n      pop\n        /* \"#utility.yul\":18135:18206   */\n      tag_320\n        /* \"#utility.yul\":18203:18204   */\n      0x00\n        /* \"#utility.yul\":18192:18201   */\n      dup4\n        /* \"#utility.yul\":18188:18205   */\n      add\n        /* \"#utility.yul\":18179:18185   */\n      dup7\n        /* \"#utility.yul\":18135:18206   */\n      tag_92\n      jump\t// in\n    tag_320:\n        /* \"#utility.yul\":18216:18288   */\n      tag_321\n        /* \"#utility.yul\":18284:18286   */\n      0x20\n        /* \"#utility.yul\":18273:18282   */\n      dup4\n        /* \"#utility.yul\":18269:18287   */\n      add\n        /* \"#utility.yul\":18260:18266   */\n      dup6\n        /* \"#utility.yul\":18216:18288   */\n      tag_128\n      jump\t// in\n    tag_321:\n        /* \"#utility.yul\":18298:18370   */\n      tag_322\n        /* \"#utility.yul\":18366:18368   */\n      0x40\n        /* \"#utility.yul\":18355:18364   */\n      dup4\n        /* \"#utility.yul\":18351:18369   */\n      add\n        /* \"#utility.yul\":18342:18348   */\n      dup5\n        /* \"#utility.yul\":18298:18370   */\n      tag_92\n      jump\t// in\n    tag_322:\n        /* \"#utility.yul\":17935:18377   */\n      swap5\n      swap4\n      pop\n      pop\n      pop\n      pop\n      jump\t// out\n\n    auxdata: 0xa2646970667358221220be72022108f4f0b36f6cb4a462c35bc00465fad19fb30efa7f0c02e9dff4efd364736f6c634300081a0033\n}\n",
				"bytecode": {
					"linkReferences": {},
					"object": "6080604052348015600e575f80fd5b50335f806101000a81548173ffffffffffffffffffffffffffffffffffffffff021916908373ffffffffffffffffffffffffffffffffffffffff16021790555061119e8061005b5f395ff3fe60806040526004361061003e575f3560e01c80635800eafa146100425780637acc0b201461006a5780639979ef45146100b0578063bc3da535146100cc575b5f80fd5b34801561004d575f80fd5b506100686004803603810190610063919061091b565b610108565b005b348015610075575f80fd5b50610090600480360381019061008b91906109ca565b610330565b6040516100a79b9a99989796959493929190610abd565b60405180910390f35b6100ca60048036038101906100c591906109ca565b6104eb565b005b3480156100d7575f80fd5b506100f260048036038101906100ed9190610baf565b610786565b6040516100ff9190610bda565b60405180910390f35b600160405180610160016040528060018054905081526020018781526020018681526020018581526020013373ffffffffffffffffffffffffffffffffffffffff1681526020018581526020018481526020015f73ffffffffffffffffffffffffffffffffffffffff1681526020015f815260200160011515815260200183426101929190610c20565b815250908060018154018082558091505060019003905f5260205f2090600b02015f909190919091505f820151815f015560208201518160010190816101d89190610e4d565b5060408201518160020190816101ee9190610e4d565b50606082015181600301556080820151816004015f6101000a81548173ffffffffffffffffffffffffffffffffffffffff021916908373ffffffffffffffffffffffffffffffffffffffff16021790555060a0820151816005015560c0820151816006015560e0820151816007015f6101000a81548173ffffffffffffffffffffffffffffffffffffffff021916908373ffffffffffffffffffffffffffffffffffffffff1602179055506101008201518160080155610120820151816009015f6101000a81548160ff02191690831515021790555061014082015181600a015550507f5bf34ed94988e5dcdc7d1faaa54eb1d3b55f45d5f11457e235afb21a8ebbe73c600180805490506103039190610f1c565b868584426103119190610c20565b6040516103219493929190610f4f565b60405180910390a15050505050565b6001818154811061033f575f80fd5b905f5260205f2090600b02015f91509050805f01549080600101805461036490610c80565b80601f016020809104026020016040519081016040528092919081815260200182805461039090610c80565b80156103db5780601f106103b2576101008083540402835291602001916103db565b820191905f5260205f20905b8154815290600101906020018083116103be57829003601f168201915b5050505050908060020180546103f090610c80565b80601f016020809104026020016040519081016040528092919081815260200182805461041c90610c80565b80156104675780601f1061043e57610100808354040283529160200191610467565b820191905f5260205f20905b81548152906001019060200180831161044a57829003601f168201915b505050505090806003015490806004015f9054906101000a900473ffffffffffffffffffffffffffffffffffffffff1690806005015490806006015490806007015f9054906101000a900473ffffffffffffffffffffffffffffffffffffffff1690806008015490806009015f9054906101000a900460ff169080600a015490508b565b80345f6001838154811061050257610501610f99565b5b905f5260205f2090600b02019050806009015f9054906101000a900460ff16610560576040517f08c379a000000000000000000000000000000000000000000000000000000000815260040161055790611010565b60405180910390fd5b80600a015442106105a6576040517f08c379a000000000000000000000000000000000000000000000000000000000815260040161059d90611078565b60405180910390fd5b81816005015411156105ed576040517f08c379a00000000000000000000000000000000000000000000000000000000081526004016105e490611106565b60405180910390fd5b5f6001858154811061060257610601610f99565b5b905f5260205f2090600b020190505f73ffffffffffffffffffffffffffffffffffffffff16816007015f9054906101000a900473ffffffffffffffffffffffffffffffffffffffff1673ffffffffffffffffffffffffffffffffffffffff16146106e157806008015460025f836007015f9054906101000a900473ffffffffffffffffffffffffffffffffffffffff1673ffffffffffffffffffffffffffffffffffffffff1673ffffffffffffffffffffffffffffffffffffffff1681526020019081526020015f205f8282546106d99190610c20565b925050819055505b33816007015f6101000a81548173ffffffffffffffffffffffffffffffffffffffff021916908373ffffffffffffffffffffffffffffffffffffffff16021790555034816008018190555034816006015461073c9190610c20565b81600501819055507f0e54eff26401bf69b81b26f60bd85ef47f5d85275c1d268d84f68d6897431c4785333460405161077793929190611133565b60405180910390a15050505050565b6002602052805f5260405f205f915090505481565b5f604051905090565b5f80fd5b5f80fd5b5f80fd5b5f80fd5b5f601f19601f8301169050919050565b7f4e487b71000000000000000000000000000000000000000000000000000000005f52604160045260245ffd5b6107fa826107b4565b810181811067ffffffffffffffff82111715610819576108186107c4565b5b80604052505050565b5f61082b61079b565b905061083782826107f1565b919050565b5f67ffffffffffffffff821115610856576108556107c4565b5b61085f826107b4565b9050602081019050919050565b828183375f83830152505050565b5f61088c6108878461083c565b610822565b9050828152602081018484840111156108a8576108a76107b0565b5b6108b384828561086c565b509392505050565b5f82601f8301126108cf576108ce6107ac565b5b81356108df84826020860161087a565b91505092915050565b5f819050919050565b6108fa816108e8565b8114610904575f80fd5b50565b5f81359050610915816108f1565b92915050565b5f805f805f60a08688031215610934576109336107a4565b5b5f86013567ffffffffffffffff811115610951576109506107a8565b5b61095d888289016108bb565b955050602086013567ffffffffffffffff81111561097e5761097d6107a8565b5b61098a888289016108bb565b945050604061099b88828901610907565b93505060606109ac88828901610907565b92505060806109bd88828901610907565b9150509295509295909350565b5f602082840312156109df576109de6107a4565b5b5f6109ec84828501610907565b91505092915050565b6109fe816108e8565b82525050565b5f81519050919050565b5f82825260208201905092915050565b8281835e5f83830152505050565b5f610a3682610a04565b610a408185610a0e565b9350610a50818560208601610a1e565b610a59816107b4565b840191505092915050565b5f73ffffffffffffffffffffffffffffffffffffffff82169050919050565b5f610a8d82610a64565b9050919050565b610a9d81610a83565b82525050565b5f8115159050919050565b610ab781610aa3565b82525050565b5f61016082019050610ad15f83018e6109f5565b8181036020830152610ae3818d610a2c565b90508181036040830152610af7818c610a2c565b9050610b06606083018b6109f5565b610b13608083018a610a94565b610b2060a08301896109f5565b610b2d60c08301886109f5565b610b3a60e0830187610a94565b610b486101008301866109f5565b610b56610120830185610aae565b610b646101408301846109f5565b9c9b505050505050505050505050565b5f610b7e82610a64565b9050919050565b610b8e81610b74565b8114610b98575f80fd5b50565b5f81359050610ba981610b85565b92915050565b5f60208284031215610bc457610bc36107a4565b5b5f610bd184828501610b9b565b91505092915050565b5f602082019050610bed5f8301846109f5565b92915050565b7f4e487b71000000000000000000000000000000000000000000000000000000005f52601160045260245ffd5b5f610c2a826108e8565b9150610c35836108e8565b9250828201905080821115610c4d57610c4c610bf3565b5b92915050565b7f4e487b71000000000000000000000000000000000000000000000000000000005f52602260045260245ffd5b5f6002820490506001821680610c9757607f821691505b602082108103610caa57610ca9610c53565b5b50919050565b5f819050815f5260205f209050919050565b5f6020601f8301049050919050565b5f82821b905092915050565b5f60088302610d0c7fffffffffffffffffffffffffffffffffffffffffffffffffffffffffffffffff82610cd1565b610d168683610cd1565b95508019841693508086168417925050509392505050565b5f819050919050565b5f610d51610d4c610d47846108e8565b610d2e565b6108e8565b9050919050565b5f819050919050565b610d6a83610d37565b610d7e610d7682610d58565b848454610cdd565b825550505050565b5f90565b610d92610d86565b610d9d818484610d61565b505050565b5b81811015610dc057610db55f82610d8a565b600181019050610da3565b5050565b601f821115610e0557610dd681610cb0565b610ddf84610cc2565b81016020851015610dee578190505b610e02610dfa85610cc2565b830182610da2565b50505b505050565b5f82821c905092915050565b5f610e255f1984600802610e0a565b1980831691505092915050565b5f610e3d8383610e16565b9150826002028217905092915050565b610e5682610a04565b67ffffffffffffffff811115610e6f57610e6e6107c4565b5b610e798254610c80565b610e84828285610dc4565b5f60209050601f831160018114610eb5575f8415610ea3578287015190505b610ead8582610e32565b865550610f14565b601f198416610ec386610cb0565b5f5b82811015610eea57848901518255600182019150602085019450602081019050610ec5565b86831015610f075784890151610f03601f891682610e16565b8355505b6001600288020188555050505b505050505050565b5f610f26826108e8565b9150610f31836108e8565b9250828203905081811115610f4957610f48610bf3565b5b92915050565b5f608082019050610f625f8301876109f5565b8181036020830152610f748186610a2c565b9050610f8360408301856109f5565b610f9060608301846109f5565b95945050505050565b7f4e487b71000000000000000000000000000000000000000000000000000000005f52603260045260245ffd5b7f41756374696f6e206973206e6f74206163746976652e000000000000000000005f82015250565b5f610ffa601683610a0e565b915061100582610fc6565b602082019050919050565b5f6020820190508181035f83015261102781610fee565b9050919050565b7f41756374696f6e2068617320656e6465642e00000000000000000000000000005f82015250565b5f611062601283610a0e565b915061106d8261102e565b602082019050919050565b5f6020820190508181035f83015261108f81611056565b9050919050565b7f42696420616d6f756e74206d7573742062652067726561746572207468616e205f8201527f7072696365000000000000000000000000000000000000000000000000000000602082015250565b5f6110f0602583610a0e565b91506110fb82611096565b604082019050919050565b5f6020820190508181035f83015261111d816110e4565b9050919050565b61112d81610b74565b82525050565b5f6060820190506111465f8301866109f5565b6111536020830185611124565b61116060408301846109f5565b94935050505056fea2646970667358221220be72022108f4f0b36f6cb4a462c35bc00465fad19fb30efa7f0c02e9dff4efd364736f6c634300081a0033",
					"opcodes": "PUSH1 0x80 PUSH1 0x40 MSTORE CALLVALUE DUP1 ISZERO PUSH1 0xE JUMPI PUSH0 DUP1 REVERT JUMPDEST POP CALLER PUSH0 DUP1 PUSH2 0x100 EXP DUP2 SLOAD DUP2 PUSH20 0xFFFFFFFFFFFFFFFFFFFFFFFFFFFFFFFFFFFFFFFF MUL NOT AND SWAP1 DUP4 PUSH20 0xFFFFFFFFFFFFFFFFFFFFFFFFFFFFFFFFFFFFFFFF AND MUL OR SWAP1 SSTORE POP PUSH2 0x119E DUP1 PUSH2 0x5B PUSH0 CODECOPY PUSH0 RETURN INVALID PUSH1 0x80 PUSH1 0x40 MSTORE PUSH1 0x4 CALLDATASIZE LT PUSH2 0x3E JUMPI PUSH0 CALLDATALOAD PUSH1 0xE0 SHR DUP1 PUSH4 0x5800EAFA EQ PUSH2 0x42 JUMPI DUP1 PUSH4 0x7ACC0B20 EQ PUSH2 0x6A JUMPI DUP1 PUSH4 0x9979EF45 EQ PUSH2 0xB0 JUMPI DUP1 PUSH4 0xBC3DA535 EQ PUSH2 0xCC JUMPI JUMPDEST PUSH0 DUP1 REVERT JUMPDEST CALLVALUE DUP1 ISZERO PUSH2 0x4D JUMPI PUSH0 DUP1 REVERT JUMPDEST POP PUSH2 0x68 PUSH1 0x4 DUP1 CALLDATASIZE SUB DUP2 ADD SWAP1 PUSH2 0x63 SWAP2 SWAP1 PUSH2 0x91B JUMP JUMPDEST PUSH2 0x108 JUMP JUMPDEST STOP JUMPDEST CALLVALUE DUP1 ISZERO PUSH2 0x75 JUMPI PUSH0 DUP1 REVERT JUMPDEST POP PUSH2 0x90 PUSH1 0x4 DUP1 CALLDATASIZE SUB DUP2 ADD SWAP1 PUSH2 0x8B SWAP2 SWAP1 PUSH2 0x9CA JUMP JUMPDEST PUSH2 0x330 JUMP JUMPDEST PUSH1 0x40 MLOAD PUSH2 0xA7 SWAP12 SWAP11 SWAP10 SWAP9 SWAP8 SWAP7 SWAP6 SWAP5 SWAP4 SWAP3 SWAP2 SWAP1 PUSH2 0xABD JUMP JUMPDEST PUSH1 0x40 MLOAD DUP1 SWAP2 SUB SWAP1 RETURN JUMPDEST PUSH2 0xCA PUSH1 0x4 DUP1 CALLDATASIZE SUB DUP2 ADD SWAP1 PUSH2 0xC5 SWAP2 SWAP1 PUSH2 0x9CA JUMP JUMPDEST PUSH2 0x4EB JUMP JUMPDEST STOP JUMPDEST CALLVALUE DUP1 ISZERO PUSH2 0xD7 JUMPI PUSH0 DUP1 REVERT JUMPDEST POP PUSH2 0xF2 PUSH1 0x4 DUP1 CALLDATASIZE SUB DUP2 ADD SWAP1 PUSH2 0xED SWAP2 SWAP1 PUSH2 0xBAF JUMP JUMPDEST PUSH2 0x786 JUMP JUMPDEST PUSH1 0x40 MLOAD PUSH2 0xFF SWAP2 SWAP1 PUSH2 0xBDA JUMP JUMPDEST PUSH1 0x40 MLOAD DUP1 SWAP2 SUB SWAP1 RETURN JUMPDEST PUSH1 0x1 PUSH1 0x40 MLOAD DUP1 PUSH2 0x160 ADD PUSH1 0x40 MSTORE DUP1 PUSH1 0x1 DUP1 SLOAD SWAP1 POP DUP2 MSTORE PUSH1 0x20 ADD DUP8 DUP2 MSTORE PUSH1 0x20 ADD DUP7 DUP2 MSTORE PUSH1 0x20 ADD DUP6 DUP2 MSTORE PUSH1 0x20 ADD CALLER PUSH20 0xFFFFFFFFFFFFFFFFFFFFFFFFFFFFFFFFFFFFFFFF AND DUP2 MSTORE PUSH1 0x20 ADD DUP6 DUP2 MSTORE PUSH1 0x20 ADD DUP5 DUP2 MSTORE PUSH1 0x20 ADD PUSH0 PUSH20 0xFFFFFFFFFFFFFFFFFFFFFFFFFFFFFFFFFFFFFFFF AND DUP2 MSTORE PUSH1 0x20 ADD PUSH0 DUP2 MSTORE PUSH1 0x20 ADD PUSH1 0x1 ISZERO ISZERO DUP2 MSTORE PUSH1 0x20 ADD DUP4 TIMESTAMP PUSH2 0x192 SWAP2 SWAP1 PUSH2 0xC20 JUMP JUMPDEST DUP2 MSTORE POP SWAP1 DUP1 PUSH1 0x1 DUP2 SLOAD ADD DUP1 DUP3 SSTORE DUP1 SWAP2 POP POP PUSH1 0x1 SWAP1 SUB SWAP1 PUSH0 MSTORE PUSH1 0x20 PUSH0 KECCAK256 SWAP1 PUSH1 0xB MUL ADD PUSH0 SWAP1 SWAP2 SWAP1 SWAP2 SWAP1 SWAP2 POP PUSH0 DUP3 ADD MLOAD DUP2 PUSH0 ADD SSTORE PUSH1 0x20 DUP3 ADD MLOAD DUP2 PUSH1 0x1 ADD SWAP1 DUP2 PUSH2 0x1D8 SWAP2 SWAP1 PUSH2 0xE4D JUMP JUMPDEST POP PUSH1 0x40 DUP3 ADD MLOAD DUP2 PUSH1 0x2 ADD SWAP1 DUP2 PUSH2 0x1EE SWAP2 SWAP1 PUSH2 0xE4D JUMP JUMPDEST POP PUSH1 0x60 DUP3 ADD MLOAD DUP2 PUSH1 0x3 ADD SSTORE PUSH1 0x80 DUP3 ADD MLOAD DUP2 PUSH1 0x4 ADD PUSH0 PUSH2 0x100 EXP DUP2 SLOAD DUP2 PUSH20 0xFFFFFFFFFFFFFFFFFFFFFFFFFFFFFFFFFFFFFFFF MUL NOT AND SWAP1 DUP4 PUSH20 0xFFFFFFFFFFFFFFFFFFFFFFFFFFFFFFFFFFFFFFFF AND MUL OR SWAP1 SSTORE POP PUSH1 0xA0 DUP3 ADD MLOAD DUP2 PUSH1 0x5 ADD SSTORE PUSH1 0xC0 DUP3 ADD MLOAD DUP2 PUSH1 0x6 ADD SSTORE PUSH1 0xE0 DUP3 ADD MLOAD DUP2 PUSH1 0x7 ADD PUSH0 PUSH2 0x100 EXP DUP2 SLOAD DUP2 PUSH20 0xFFFFFFFFFFFFFFFFFFFFFFFFFFFFFFFFFFFFFFFF MUL NOT AND SWAP1 DUP4 PUSH20 0xFFFFFFFFFFFFFFFFFFFFFFFFFFFFFFFFFFFFFFFF AND MUL OR SWAP1 SSTORE POP PUSH2 0x100 DUP3 ADD MLOAD DUP2 PUSH1 0x8 ADD SSTORE PUSH2 0x120 DUP3 ADD MLOAD DUP2 PUSH1 0x9 ADD PUSH0 PUSH2 0x100 EXP DUP2 SLOAD DUP2 PUSH1 0xFF MUL NOT AND SWAP1 DUP4 ISZERO ISZERO MUL OR SWAP1 SSTORE POP PUSH2 0x140 DUP3 ADD MLOAD DUP2 PUSH1 0xA ADD SSTORE POP POP PUSH32 0x5BF34ED94988E5DCDC7D1FAAA54EB1D3B55F45D5F11457E235AFB21A8EBBE73C PUSH1 0x1 DUP1 DUP1 SLOAD SWAP1 POP PUSH2 0x303 SWAP2 SWAP1 PUSH2 0xF1C JUMP JUMPDEST DUP7 DUP6 DUP5 TIMESTAMP PUSH2 0x311 SWAP2 SWAP1 PUSH2 0xC20 JUMP JUMPDEST PUSH1 0x40 MLOAD PUSH2 0x321 SWAP5 SWAP4 SWAP3 SWAP2 SWAP1 PUSH2 0xF4F JUMP JUMPDEST PUSH1 0x40 MLOAD DUP1 SWAP2 SUB SWAP1 LOG1 POP POP POP POP POP JUMP JUMPDEST PUSH1 0x1 DUP2 DUP2 SLOAD DUP2 LT PUSH2 0x33F JUMPI PUSH0 DUP1 REVERT JUMPDEST SWAP1 PUSH0 MSTORE PUSH1 0x20 PUSH0 KECCAK256 SWAP1 PUSH1 0xB MUL ADD PUSH0 SWAP2 POP SWAP1 POP DUP1 PUSH0 ADD SLOAD SWAP1 DUP1 PUSH1 0x1 ADD DUP1 SLOAD PUSH2 0x364 SWAP1 PUSH2 0xC80 JUMP JUMPDEST DUP1 PUSH1 0x1F ADD PUSH1 0x20 DUP1 SWAP2 DIV MUL PUSH1 0x20 ADD PUSH1 0x40 MLOAD SWAP1 DUP2 ADD PUSH1 0x40 MSTORE DUP1 SWAP3 SWAP2 SWAP1 DUP2 DUP2 MSTORE PUSH1 0x20 ADD DUP3 DUP1 SLOAD PUSH2 0x390 SWAP1 PUSH2 0xC80 JUMP JUMPDEST DUP1 ISZERO PUSH2 0x3DB JUMPI DUP1 PUSH1 0x1F LT PUSH2 0x3B2 JUMPI PUSH2 0x100 DUP1 DUP4 SLOAD DIV MUL DUP4 MSTORE SWAP2 PUSH1 0x20 ADD SWAP2 PUSH2 0x3DB JUMP JUMPDEST DUP3 ADD SWAP2 SWAP1 PUSH0 MSTORE PUSH1 0x20 PUSH0 KECCAK256 SWAP1 JUMPDEST DUP2 SLOAD DUP2 MSTORE SWAP1 PUSH1 0x1 ADD SWAP1 PUSH1 0x20 ADD DUP1 DUP4 GT PUSH2 0x3BE JUMPI DUP3 SWAP1 SUB PUSH1 0x1F AND DUP3 ADD SWAP2 JUMPDEST POP POP POP POP POP SWAP1 DUP1 PUSH1 0x2 ADD DUP1 SLOAD PUSH2 0x3F0 SWAP1 PUSH2 0xC80 JUMP JUMPDEST DUP1 PUSH1 0x1F ADD PUSH1 0x20 DUP1 SWAP2 DIV MUL PUSH1 0x20 ADD PUSH1 0x40 MLOAD SWAP1 DUP2 ADD PUSH1 0x40 MSTORE DUP1 SWAP3 SWAP2 SWAP1 DUP2 DUP2 MSTORE PUSH1 0x20 ADD DUP3 DUP1 SLOAD PUSH2 0x41C SWAP1 PUSH2 0xC80 JUMP JUMPDEST DUP1 ISZERO PUSH2 0x467 JUMPI DUP1 PUSH1 0x1F LT PUSH2 0x43E JUMPI PUSH2 0x100 DUP1 DUP4 SLOAD DIV MUL DUP4 MSTORE SWAP2 PUSH1 0x20 ADD SWAP2 PUSH2 0x467 JUMP JUMPDEST DUP3 ADD SWAP2 SWAP1 PUSH0 MSTORE PUSH1 0x20 PUSH0 KECCAK256 SWAP1 JUMPDEST DUP2 SLOAD DUP2 MSTORE SWAP1 PUSH1 0x1 ADD SWAP1 PUSH1 0x20 ADD DUP1 DUP4 GT PUSH2 0x44A JUMPI DUP3 SWAP1 SUB PUSH1 0x1F AND DUP3 ADD SWAP2 JUMPDEST POP POP POP POP POP SWAP1 DUP1 PUSH1 0x3 ADD SLOAD SWAP1 DUP1 PUSH1 0x4 ADD PUSH0 SWAP1 SLOAD SWAP1 PUSH2 0x100 EXP SWAP1 DIV PUSH20 0xFFFFFFFFFFFFFFFFFFFFFFFFFFFFFFFFFFFFFFFF AND SWAP1 DUP1 PUSH1 0x5 ADD SLOAD SWAP1 DUP1 PUSH1 0x6 ADD SLOAD SWAP1 DUP1 PUSH1 0x7 ADD PUSH0 SWAP1 SLOAD SWAP1 PUSH2 0x100 EXP SWAP1 DIV PUSH20 0xFFFFFFFFFFFFFFFFFFFFFFFFFFFFFFFFFFFFFFFF AND SWAP1 DUP1 PUSH1 0x8 ADD SLOAD SWAP1 DUP1 PUSH1 0x9 ADD PUSH0 SWAP1 SLOAD SWAP1 PUSH2 0x100 EXP SWAP1 DIV PUSH1 0xFF AND SWAP1 DUP1 PUSH1 0xA ADD SLOAD SWAP1 POP DUP12 JUMP JUMPDEST DUP1 CALLVALUE PUSH0 PUSH1 0x1 DUP4 DUP2 SLOAD DUP2 LT PUSH2 0x502 JUMPI PUSH2 0x501 PUSH2 0xF99 JUMP JUMPDEST JUMPDEST SWAP1 PUSH0 MSTORE PUSH1 0x20 PUSH0 KECCAK256 SWAP1 PUSH1 0xB MUL ADD SWAP1 POP DUP1 PUSH1 0x9 ADD PUSH0 SWAP1 SLOAD SWAP1 PUSH2 0x100 EXP SWAP1 DIV PUSH1 0xFF AND PUSH2 0x560 JUMPI PUSH1 0x40 MLOAD PUSH32 0x8C379A000000000000000000000000000000000000000000000000000000000 DUP2 MSTORE PUSH1 0x4 ADD PUSH2 0x557 SWAP1 PUSH2 0x1010 JUMP JUMPDEST PUSH1 0x40 MLOAD DUP1 SWAP2 SUB SWAP1 REVERT JUMPDEST DUP1 PUSH1 0xA ADD SLOAD TIMESTAMP LT PUSH2 0x5A6 JUMPI PUSH1 0x40 MLOAD PUSH32 0x8C379A000000000000000000000000000000000000000000000000000000000 DUP2 MSTORE PUSH1 0x4 ADD PUSH2 0x59D SWAP1 PUSH2 0x1078 JUMP JUMPDEST PUSH1 0x40 MLOAD DUP1 SWAP2 SUB SWAP1 REVERT JUMPDEST DUP2 DUP2 PUSH1 0x5 ADD SLOAD GT ISZERO PUSH2 0x5ED JUMPI PUSH1 0x40 MLOAD PUSH32 0x8C379A000000000000000000000000000000000000000000000000000000000 DUP2 MSTORE PUSH1 0x4 ADD PUSH2 0x5E4 SWAP1 PUSH2 0x1106 JUMP JUMPDEST PUSH1 0x40 MLOAD DUP1 SWAP2 SUB SWAP1 REVERT JUMPDEST PUSH0 PUSH1 0x1 DUP6 DUP2 SLOAD DUP2 LT PUSH2 0x602 JUMPI PUSH2 0x601 PUSH2 0xF99 JUMP JUMPDEST JUMPDEST SWAP1 PUSH0 MSTORE PUSH1 0x20 PUSH0 KECCAK256 SWAP1 PUSH1 0xB MUL ADD SWAP1 POP PUSH0 PUSH20 0xFFFFFFFFFFFFFFFFFFFFFFFFFFFFFFFFFFFFFFFF AND DUP2 PUSH1 0x7 ADD PUSH0 SWAP1 SLOAD SWAP1 PUSH2 0x100 EXP SWAP1 DIV PUSH20 0xFFFFFFFFFFFFFFFFFFFFFFFFFFFFFFFFFFFFFFFF AND PUSH20 0xFFFFFFFFFFFFFFFFFFFFFFFFFFFFFFFFFFFFFFFF AND EQ PUSH2 0x6E1 JUMPI DUP1 PUSH1 0x8 ADD SLOAD PUSH1 0x2 PUSH0 DUP4 PUSH1 0x7 ADD PUSH0 SWAP1 SLOAD SWAP1 PUSH2 0x100 EXP SWAP1 DIV PUSH20 0xFFFFFFFFFFFFFFFFFFFFFFFFFFFFFFFFFFFFFFFF AND PUSH20 0xFFFFFFFFFFFFFFFFFFFFFFFFFFFFFFFFFFFFFFFF AND PUSH20 0xFFFFFFFFFFFFFFFFFFFFFFFFFFFFFFFFFFFFFFFF AND DUP2 MSTORE PUSH1 0x20 ADD SWAP1 DUP2 MSTORE PUSH1 0x20 ADD PUSH0 KECCAK256 PUSH0 DUP3 DUP3 SLOAD PUSH2 0x6D9 SWAP2 SWAP1 PUSH2 0xC20 JUMP JUMPDEST SWAP3 POP POP DUP2 SWAP1 SSTORE POP JUMPDEST CALLER DUP2 PUSH1 0x7 ADD PUSH0 PUSH2 0x100 EXP DUP2 SLOAD DUP2 PUSH20 0xFFFFFFFFFFFFFFFFFFFFFFFFFFFFFFFFFFFFFFFF MUL NOT AND SWAP1 DUP4 PUSH20 0xFFFFFFFFFFFFFFFFFFFFFFFFFFFFFFFFFFFFFFFF AND MUL OR SWAP1 SSTORE POP CALLVALUE DUP2 PUSH1 0x8 ADD DUP2 SWAP1 SSTORE POP CALLVALUE DUP2 PUSH1 0x6 ADD SLOAD PUSH2 0x73C SWAP2 SWAP1 PUSH2 0xC20 JUMP JUMPDEST DUP2 PUSH1 0x5 ADD DUP2 SWAP1 SSTORE POP PUSH32 0xE54EFF26401BF69B81B26F60BD85EF47F5D85275C1D268D84F68D6897431C47 DUP6 CALLER CALLVALUE PUSH1 0x40 MLOAD PUSH2 0x777 SWAP4 SWAP3 SWAP2 SWAP1 PUSH2 0x1133 JUMP JUMPDEST PUSH1 0x40 MLOAD DUP1 SWAP2 SUB SWAP1 LOG1 POP POP POP POP POP JUMP JUMPDEST PUSH1 0x2 PUSH1 0x20 MSTORE DUP1 PUSH0 MSTORE PUSH1 0x40 PUSH0 KECCAK256 PUSH0 SWAP2 POP SWAP1 POP SLOAD DUP2 JUMP JUMPDEST PUSH0 PUSH1 0x40 MLOAD SWAP1 POP SWAP1 JUMP JUMPDEST PUSH0 DUP1 REVERT JUMPDEST PUSH0 DUP1 REVERT JUMPDEST PUSH0 DUP1 REVERT JUMPDEST PUSH0 DUP1 REVERT JUMPDEST PUSH0 PUSH1 0x1F NOT PUSH1 0x1F DUP4 ADD AND SWAP1 POP SWAP2 SWAP1 POP JUMP JUMPDEST PUSH32 0x4E487B7100000000000000000000000000000000000000000000000000000000 PUSH0 MSTORE PUSH1 0x41 PUSH1 0x4 MSTORE PUSH1 0x24 PUSH0 REVERT JUMPDEST PUSH2 0x7FA DUP3 PUSH2 0x7B4 JUMP JUMPDEST DUP2 ADD DUP2 DUP2 LT PUSH8 0xFFFFFFFFFFFFFFFF DUP3 GT OR ISZERO PUSH2 0x819 JUMPI PUSH2 0x818 PUSH2 0x7C4 JUMP JUMPDEST JUMPDEST DUP1 PUSH1 0x40 MSTORE POP POP POP JUMP JUMPDEST PUSH0 PUSH2 0x82B PUSH2 0x79B JUMP JUMPDEST SWAP1 POP PUSH2 0x837 DUP3 DUP3 PUSH2 0x7F1 JUMP JUMPDEST SWAP2 SWAP1 POP JUMP JUMPDEST PUSH0 PUSH8 0xFFFFFFFFFFFFFFFF DUP3 GT ISZERO PUSH2 0x856 JUMPI PUSH2 0x855 PUSH2 0x7C4 JUMP JUMPDEST JUMPDEST PUSH2 0x85F DUP3 PUSH2 0x7B4 JUMP JUMPDEST SWAP1 POP PUSH1 0x20 DUP2 ADD SWAP1 POP SWAP2 SWAP1 POP JUMP JUMPDEST DUP3 DUP2 DUP4 CALLDATACOPY PUSH0 DUP4 DUP4 ADD MSTORE POP POP POP JUMP JUMPDEST PUSH0 PUSH2 0x88C PUSH2 0x887 DUP5 PUSH2 0x83C JUMP JUMPDEST PUSH2 0x822 JUMP JUMPDEST SWAP1 POP DUP3 DUP2 MSTORE PUSH1 0x20 DUP2 ADD DUP5 DUP5 DUP5 ADD GT ISZERO PUSH2 0x8A8 JUMPI PUSH2 0x8A7 PUSH2 0x7B0 JUMP JUMPDEST JUMPDEST PUSH2 0x8B3 DUP5 DUP3 DUP6 PUSH2 0x86C JUMP JUMPDEST POP SWAP4 SWAP3 POP POP POP JUMP JUMPDEST PUSH0 DUP3 PUSH1 0x1F DUP4 ADD SLT PUSH2 0x8CF JUMPI PUSH2 0x8CE PUSH2 0x7AC JUMP JUMPDEST JUMPDEST DUP2 CALLDATALOAD PUSH2 0x8DF DUP5 DUP3 PUSH1 0x20 DUP7 ADD PUSH2 0x87A JUMP JUMPDEST SWAP2 POP POP SWAP3 SWAP2 POP POP JUMP JUMPDEST PUSH0 DUP2 SWAP1 POP SWAP2 SWAP1 POP JUMP JUMPDEST PUSH2 0x8FA DUP2 PUSH2 0x8E8 JUMP JUMPDEST DUP2 EQ PUSH2 0x904 JUMPI PUSH0 DUP1 REVERT JUMPDEST POP JUMP JUMPDEST PUSH0 DUP2 CALLDATALOAD SWAP1 POP PUSH2 0x915 DUP2 PUSH2 0x8F1 JUMP JUMPDEST SWAP3 SWAP2 POP POP JUMP JUMPDEST PUSH0 DUP1 PUSH0 DUP1 PUSH0 PUSH1 0xA0 DUP7 DUP9 SUB SLT ISZERO PUSH2 0x934 JUMPI PUSH2 0x933 PUSH2 0x7A4 JUMP JUMPDEST JUMPDEST PUSH0 DUP7 ADD CALLDATALOAD PUSH8 0xFFFFFFFFFFFFFFFF DUP2 GT ISZERO PUSH2 0x951 JUMPI PUSH2 0x950 PUSH2 0x7A8 JUMP JUMPDEST JUMPDEST PUSH2 0x95D DUP9 DUP3 DUP10 ADD PUSH2 0x8BB JUMP JUMPDEST SWAP6 POP POP PUSH1 0x20 DUP7 ADD CALLDATALOAD PUSH8 0xFFFFFFFFFFFFFFFF DUP2 GT ISZERO PUSH2 0x97E JUMPI PUSH2 0x97D PUSH2 0x7A8 JUMP JUMPDEST JUMPDEST PUSH2 0x98A DUP9 DUP3 DUP10 ADD PUSH2 0x8BB JUMP JUMPDEST SWAP5 POP POP PUSH1 0x40 PUSH2 0x99B DUP9 DUP3 DUP10 ADD PUSH2 0x907 JUMP JUMPDEST SWAP4 POP POP PUSH1 0x60 PUSH2 0x9AC DUP9 DUP3 DUP10 ADD PUSH2 0x907 JUMP JUMPDEST SWAP3 POP POP PUSH1 0x80 PUSH2 0x9BD DUP9 DUP3 DUP10 ADD PUSH2 0x907 JUMP JUMPDEST SWAP2 POP POP SWAP3 SWAP6 POP SWAP3 SWAP6 SWAP1 SWAP4 POP JUMP JUMPDEST PUSH0 PUSH1 0x20 DUP3 DUP5 SUB SLT ISZERO PUSH2 0x9DF JUMPI PUSH2 0x9DE PUSH2 0x7A4 JUMP JUMPDEST JUMPDEST PUSH0 PUSH2 0x9EC DUP5 DUP3 DUP6 ADD PUSH2 0x907 JUMP JUMPDEST SWAP2 POP POP SWAP3 SWAP2 POP POP JUMP JUMPDEST PUSH2 0x9FE DUP2 PUSH2 0x8E8 JUMP JUMPDEST DUP3 MSTORE POP POP JUMP JUMPDEST PUSH0 DUP2 MLOAD SWAP1 POP SWAP2 SWAP1 POP JUMP JUMPDEST PUSH0 DUP3 DUP3 MSTORE PUSH1 0x20 DUP3 ADD SWAP1 POP SWAP3 SWAP2 POP POP JUMP JUMPDEST DUP3 DUP2 DUP4 MCOPY PUSH0 DUP4 DUP4 ADD MSTORE POP POP POP JUMP JUMPDEST PUSH0 PUSH2 0xA36 DUP3 PUSH2 0xA04 JUMP JUMPDEST PUSH2 0xA40 DUP2 DUP6 PUSH2 0xA0E JUMP JUMPDEST SWAP4 POP PUSH2 0xA50 DUP2 DUP6 PUSH1 0x20 DUP7 ADD PUSH2 0xA1E JUMP JUMPDEST PUSH2 0xA59 DUP2 PUSH2 0x7B4 JUMP JUMPDEST DUP5 ADD SWAP2 POP POP SWAP3 SWAP2 POP POP JUMP JUMPDEST PUSH0 PUSH20 0xFFFFFFFFFFFFFFFFFFFFFFFFFFFFFFFFFFFFFFFF DUP3 AND SWAP1 POP SWAP2 SWAP1 POP JUMP JUMPDEST PUSH0 PUSH2 0xA8D DUP3 PUSH2 0xA64 JUMP JUMPDEST SWAP1 POP SWAP2 SWAP1 POP JUMP JUMPDEST PUSH2 0xA9D DUP2 PUSH2 0xA83 JUMP JUMPDEST DUP3 MSTORE POP POP JUMP JUMPDEST PUSH0 DUP2 ISZERO ISZERO SWAP1 POP SWAP2 SWAP1 POP JUMP JUMPDEST PUSH2 0xAB7 DUP2 PUSH2 0xAA3 JUMP JUMPDEST DUP3 MSTORE POP POP JUMP JUMPDEST PUSH0 PUSH2 0x160 DUP3 ADD SWAP1 POP PUSH2 0xAD1 PUSH0 DUP4 ADD DUP15 PUSH2 0x9F5 JUMP JUMPDEST DUP2 DUP2 SUB PUSH1 0x20 DUP4 ADD MSTORE PUSH2 0xAE3 DUP2 DUP14 PUSH2 0xA2C JUMP JUMPDEST SWAP1 POP DUP2 DUP2 SUB PUSH1 0x40 DUP4 ADD MSTORE PUSH2 0xAF7 DUP2 DUP13 PUSH2 0xA2C JUMP JUMPDEST SWAP1 POP PUSH2 0xB06 PUSH1 0x60 DUP4 ADD DUP12 PUSH2 0x9F5 JUMP JUMPDEST PUSH2 0xB13 PUSH1 0x80 DUP4 ADD DUP11 PUSH2 0xA94 JUMP JUMPDEST PUSH2 0xB20 PUSH1 0xA0 DUP4 ADD DUP10 PUSH2 0x9F5 JUMP JUMPDEST PUSH2 0xB2D PUSH1 0xC0 DUP4 ADD DUP9 PUSH2 0x9F5 JUMP JUMPDEST PUSH2 0xB3A PUSH1 0xE0 DUP4 ADD DUP8 PUSH2 0xA94 JUMP JUMPDEST PUSH2 0xB48 PUSH2 0x100 DUP4 ADD DUP7 PUSH2 0x9F5 JUMP JUMPDEST PUSH2 0xB56 PUSH2 0x120 DUP4 ADD DUP6 PUSH2 0xAAE JUMP JUMPDEST PUSH2 0xB64 PUSH2 0x140 DUP4 ADD DUP5 PUSH2 0x9F5 JUMP JUMPDEST SWAP13 SWAP12 POP POP POP POP POP POP POP POP POP POP POP POP JUMP JUMPDEST PUSH0 PUSH2 0xB7E DUP3 PUSH2 0xA64 JUMP JUMPDEST SWAP1 POP SWAP2 SWAP1 POP JUMP JUMPDEST PUSH2 0xB8E DUP2 PUSH2 0xB74 JUMP JUMPDEST DUP2 EQ PUSH2 0xB98 JUMPI PUSH0 DUP1 REVERT JUMPDEST POP JUMP JUMPDEST PUSH0 DUP2 CALLDATALOAD SWAP1 POP PUSH2 0xBA9 DUP2 PUSH2 0xB85 JUMP JUMPDEST SWAP3 SWAP2 POP POP JUMP JUMPDEST PUSH0 PUSH1 0x20 DUP3 DUP5 SUB SLT ISZERO PUSH2 0xBC4 JUMPI PUSH2 0xBC3 PUSH2 0x7A4 JUMP JUMPDEST JUMPDEST PUSH0 PUSH2 0xBD1 DUP5 DUP3 DUP6 ADD PUSH2 0xB9B JUMP JUMPDEST SWAP2 POP POP SWAP3 SWAP2 POP POP JUMP JUMPDEST PUSH0 PUSH1 0x20 DUP3 ADD SWAP1 POP PUSH2 0xBED PUSH0 DUP4 ADD DUP5 PUSH2 0x9F5 JUMP JUMPDEST SWAP3 SWAP2 POP POP JUMP JUMPDEST PUSH32 0x4E487B7100000000000000000000000000000000000000000000000000000000 PUSH0 MSTORE PUSH1 0x11 PUSH1 0x4 MSTORE PUSH1 0x24 PUSH0 REVERT JUMPDEST PUSH0 PUSH2 0xC2A DUP3 PUSH2 0x8E8 JUMP JUMPDEST SWAP2 POP PUSH2 0xC35 DUP4 PUSH2 0x8E8 JUMP JUMPDEST SWAP3 POP DUP3 DUP3 ADD SWAP1 POP DUP1 DUP3 GT ISZERO PUSH2 0xC4D JUMPI PUSH2 0xC4C PUSH2 0xBF3 JUMP JUMPDEST JUMPDEST SWAP3 SWAP2 POP POP JUMP JUMPDEST PUSH32 0x4E487B7100000000000000000000000000000000000000000000000000000000 PUSH0 MSTORE PUSH1 0x22 PUSH1 0x4 MSTORE PUSH1 0x24 PUSH0 REVERT JUMPDEST PUSH0 PUSH1 0x2 DUP3 DIV SWAP1 POP PUSH1 0x1 DUP3 AND DUP1 PUSH2 0xC97 JUMPI PUSH1 0x7F DUP3 AND SWAP2 POP JUMPDEST PUSH1 0x20 DUP3 LT DUP2 SUB PUSH2 0xCAA JUMPI PUSH2 0xCA9 PUSH2 0xC53 JUMP JUMPDEST JUMPDEST POP SWAP2 SWAP1 POP JUMP JUMPDEST PUSH0 DUP2 SWAP1 POP DUP2 PUSH0 MSTORE PUSH1 0x20 PUSH0 KECCAK256 SWAP1 POP SWAP2 SWAP1 POP JUMP JUMPDEST PUSH0 PUSH1 0x20 PUSH1 0x1F DUP4 ADD DIV SWAP1 POP SWAP2 SWAP1 POP JUMP JUMPDEST PUSH0 DUP3 DUP3 SHL SWAP1 POP SWAP3 SWAP2 POP POP JUMP JUMPDEST PUSH0 PUSH1 0x8 DUP4 MUL PUSH2 0xD0C PUSH32 0xFFFFFFFFFFFFFFFFFFFFFFFFFFFFFFFFFFFFFFFFFFFFFFFFFFFFFFFFFFFFFFFF DUP3 PUSH2 0xCD1 JUMP JUMPDEST PUSH2 0xD16 DUP7 DUP4 PUSH2 0xCD1 JUMP JUMPDEST SWAP6 POP DUP1 NOT DUP5 AND SWAP4 POP DUP1 DUP7 AND DUP5 OR SWAP3 POP POP POP SWAP4 SWAP3 POP POP POP JUMP JUMPDEST PUSH0 DUP2 SWAP1 POP SWAP2 SWAP1 POP JUMP JUMPDEST PUSH0 PUSH2 0xD51 PUSH2 0xD4C PUSH2 0xD47 DUP5 PUSH2 0x8E8 JUMP JUMPDEST PUSH2 0xD2E JUMP JUMPDEST PUSH2 0x8E8 JUMP JUMPDEST SWAP1 POP SWAP2 SWAP1 POP JUMP JUMPDEST PUSH0 DUP2 SWAP1 POP SWAP2 SWAP1 POP JUMP JUMPDEST PUSH2 0xD6A DUP4 PUSH2 0xD37 JUMP JUMPDEST PUSH2 0xD7E PUSH2 0xD76 DUP3 PUSH2 0xD58 JUMP JUMPDEST DUP5 DUP5 SLOAD PUSH2 0xCDD JUMP JUMPDEST DUP3 SSTORE POP POP POP POP JUMP JUMPDEST PUSH0 SWAP1 JUMP JUMPDEST PUSH2 0xD92 PUSH2 0xD86 JUMP JUMPDEST PUSH2 0xD9D DUP2 DUP5 DUP5 PUSH2 0xD61 JUMP JUMPDEST POP POP POP JUMP JUMPDEST JUMPDEST DUP2 DUP2 LT ISZERO PUSH2 0xDC0 JUMPI PUSH2 0xDB5 PUSH0 DUP3 PUSH2 0xD8A JUMP JUMPDEST PUSH1 0x1 DUP2 ADD SWAP1 POP PUSH2 0xDA3 JUMP JUMPDEST POP POP JUMP JUMPDEST PUSH1 0x1F DUP3 GT ISZERO PUSH2 0xE05 JUMPI PUSH2 0xDD6 DUP2 PUSH2 0xCB0 JUMP JUMPDEST PUSH2 0xDDF DUP5 PUSH2 0xCC2 JUMP JUMPDEST DUP2 ADD PUSH1 0x20 DUP6 LT ISZERO PUSH2 0xDEE JUMPI DUP2 SWAP1 POP JUMPDEST PUSH2 0xE02 PUSH2 0xDFA DUP6 PUSH2 0xCC2 JUMP JUMPDEST DUP4 ADD DUP3 PUSH2 0xDA2 JUMP JUMPDEST POP POP JUMPDEST POP POP POP JUMP JUMPDEST PUSH0 DUP3 DUP3 SHR SWAP1 POP SWAP3 SWAP2 POP POP JUMP JUMPDEST PUSH0 PUSH2 0xE25 PUSH0 NOT DUP5 PUSH1 0x8 MUL PUSH2 0xE0A JUMP JUMPDEST NOT DUP1 DUP4 AND SWAP2 POP POP SWAP3 SWAP2 POP POP JUMP JUMPDEST PUSH0 PUSH2 0xE3D DUP4 DUP4 PUSH2 0xE16 JUMP JUMPDEST SWAP2 POP DUP3 PUSH1 0x2 MUL DUP3 OR SWAP1 POP SWAP3 SWAP2 POP POP JUMP JUMPDEST PUSH2 0xE56 DUP3 PUSH2 0xA04 JUMP JUMPDEST PUSH8 0xFFFFFFFFFFFFFFFF DUP2 GT ISZERO PUSH2 0xE6F JUMPI PUSH2 0xE6E PUSH2 0x7C4 JUMP JUMPDEST JUMPDEST PUSH2 0xE79 DUP3 SLOAD PUSH2 0xC80 JUMP JUMPDEST PUSH2 0xE84 DUP3 DUP3 DUP6 PUSH2 0xDC4 JUMP JUMPDEST PUSH0 PUSH1 0x20 SWAP1 POP PUSH1 0x1F DUP4 GT PUSH1 0x1 DUP2 EQ PUSH2 0xEB5 JUMPI PUSH0 DUP5 ISZERO PUSH2 0xEA3 JUMPI DUP3 DUP8 ADD MLOAD SWAP1 POP JUMPDEST PUSH2 0xEAD DUP6 DUP3 PUSH2 0xE32 JUMP JUMPDEST DUP7 SSTORE POP PUSH2 0xF14 JUMP JUMPDEST PUSH1 0x1F NOT DUP5 AND PUSH2 0xEC3 DUP7 PUSH2 0xCB0 JUMP JUMPDEST PUSH0 JUMPDEST DUP3 DUP2 LT ISZERO PUSH2 0xEEA JUMPI DUP5 DUP10 ADD MLOAD DUP3 SSTORE PUSH1 0x1 DUP3 ADD SWAP2 POP PUSH1 0x20 DUP6 ADD SWAP5 POP PUSH1 0x20 DUP2 ADD SWAP1 POP PUSH2 0xEC5 JUMP JUMPDEST DUP7 DUP4 LT ISZERO PUSH2 0xF07 JUMPI DUP5 DUP10 ADD MLOAD PUSH2 0xF03 PUSH1 0x1F DUP10 AND DUP3 PUSH2 0xE16 JUMP JUMPDEST DUP4 SSTORE POP JUMPDEST PUSH1 0x1 PUSH1 0x2 DUP9 MUL ADD DUP9 SSTORE POP POP POP JUMPDEST POP POP POP POP POP POP JUMP JUMPDEST PUSH0 PUSH2 0xF26 DUP3 PUSH2 0x8E8 JUMP JUMPDEST SWAP2 POP PUSH2 0xF31 DUP4 PUSH2 0x8E8 JUMP JUMPDEST SWAP3 POP DUP3 DUP3 SUB SWAP1 POP DUP2 DUP2 GT ISZERO PUSH2 0xF49 JUMPI PUSH2 0xF48 PUSH2 0xBF3 JUMP JUMPDEST JUMPDEST SWAP3 SWAP2 POP POP JUMP JUMPDEST PUSH0 PUSH1 0x80 DUP3 ADD SWAP1 POP PUSH2 0xF62 PUSH0 DUP4 ADD DUP8 PUSH2 0x9F5 JUMP JUMPDEST DUP2 DUP2 SUB PUSH1 0x20 DUP4 ADD MSTORE PUSH2 0xF74 DUP2 DUP7 PUSH2 0xA2C JUMP JUMPDEST SWAP1 POP PUSH2 0xF83 PUSH1 0x40 DUP4 ADD DUP6 PUSH2 0x9F5 JUMP JUMPDEST PUSH2 0xF90 PUSH1 0x60 DUP4 ADD DUP5 PUSH2 0x9F5 JUMP JUMPDEST SWAP6 SWAP5 POP POP POP POP POP JUMP JUMPDEST PUSH32 0x4E487B7100000000000000000000000000000000000000000000000000000000 PUSH0 MSTORE PUSH1 0x32 PUSH1 0x4 MSTORE PUSH1 0x24 PUSH0 REVERT JUMPDEST PUSH32 0x41756374696F6E206973206E6F74206163746976652E00000000000000000000 PUSH0 DUP3 ADD MSTORE POP JUMP JUMPDEST PUSH0 PUSH2 0xFFA PUSH1 0x16 DUP4 PUSH2 0xA0E JUMP JUMPDEST SWAP2 POP PUSH2 0x1005 DUP3 PUSH2 0xFC6 JUMP JUMPDEST PUSH1 0x20 DUP3 ADD SWAP1 POP SWAP2 SWAP1 POP JUMP JUMPDEST PUSH0 PUSH1 0x20 DUP3 ADD SWAP1 POP DUP2 DUP2 SUB PUSH0 DUP4 ADD MSTORE PUSH2 0x1027 DUP2 PUSH2 0xFEE JUMP JUMPDEST SWAP1 POP SWAP2 SWAP1 POP JUMP JUMPDEST PUSH32 0x41756374696F6E2068617320656E6465642E0000000000000000000000000000 PUSH0 DUP3 ADD MSTORE POP JUMP JUMPDEST PUSH0 PUSH2 0x1062 PUSH1 0x12 DUP4 PUSH2 0xA0E JUMP JUMPDEST SWAP2 POP PUSH2 0x106D DUP3 PUSH2 0x102E JUMP JUMPDEST PUSH1 0x20 DUP3 ADD SWAP1 POP SWAP2 SWAP1 POP JUMP JUMPDEST PUSH0 PUSH1 0x20 DUP3 ADD SWAP1 POP DUP2 DUP2 SUB PUSH0 DUP4 ADD MSTORE PUSH2 0x108F DUP2 PUSH2 0x1056 JUMP JUMPDEST SWAP1 POP SWAP2 SWAP1 POP JUMP JUMPDEST PUSH32 0x42696420616D6F756E74206D7573742062652067726561746572207468616E20 PUSH0 DUP3 ADD MSTORE PUSH32 0x7072696365000000000000000000000000000000000000000000000000000000 PUSH1 0x20 DUP3 ADD MSTORE POP JUMP JUMPDEST PUSH0 PUSH2 0x10F0 PUSH1 0x25 DUP4 PUSH2 0xA0E JUMP JUMPDEST SWAP2 POP PUSH2 0x10FB DUP3 PUSH2 0x1096 JUMP JUMPDEST PUSH1 0x40 DUP3 ADD SWAP1 POP SWAP2 SWAP1 POP JUMP JUMPDEST PUSH0 PUSH1 0x20 DUP3 ADD SWAP1 POP DUP2 DUP2 SUB PUSH0 DUP4 ADD MSTORE PUSH2 0x111D DUP2 PUSH2 0x10E4 JUMP JUMPDEST SWAP1 POP SWAP2 SWAP1 POP JUMP JUMPDEST PUSH2 0x112D DUP2 PUSH2 0xB74 JUMP JUMPDEST DUP3 MSTORE POP POP JUMP JUMPDEST PUSH0 PUSH1 0x60 DUP3 ADD SWAP1 POP PUSH2 0x1146 PUSH0 DUP4 ADD DUP7 PUSH2 0x9F5 JUMP JUMPDEST PUSH2 0x1153 PUSH1 0x20 DUP4 ADD DUP6 PUSH2 0x1124 JUMP JUMPDEST PUSH2 0x1160 PUSH1 0x40 DUP4 ADD DUP5 PUSH2 0x9F5 JUMP JUMPDEST SWAP5 SWAP4 POP POP POP POP JUMP INVALID LOG2 PUSH5 0x6970667358 0x22 SLT KECCAK256 0xBE PUSH19 0x22108F4F0B36F6CB4A462C35BC00465FAD19F 0xB3 0xE STATICCALL PUSH32 0xC02E9DFF4EFD364736F6C634300081A00330000000000000000000000000000 "
				},
				"gasEstimates": {
					"creation": {
						"codeDepositCost": "902000",
						"executionCost": "25198",
						"totalCost": "927198"
					},
					"external": {
						"createAuction(string,string,uint256,uint256,uint256)": "infinite",
						"placeBid(uint256)": "infinite",
						"products(uint256)": "infinite",
						"refunds(address)": "2846"
					}
				},
				"methodIdentifiers": {
					"createAuction(string,string,uint256,uint256,uint256)": "5800eafa",
					"placeBid(uint256)": "9979ef45",
					"products(uint256)": "7acc0b20",
					"refunds(address)": "bc3da535"
				}
			},
			"storageLayout": {
				"storage": [
					{
						"astId": 4,
						"contract": "contracts/4_Auction.sol:Auction",
						"label": "contractOwner",
						"offset": 0,
						"slot": "0",
						"type": "t_address"
					},
					{
						"astId": 31,
						"contract": "contracts/4_Auction.sol:Auction",
						"label": "products",
						"offset": 0,
						"slot": "1",
						"type": "t_array(t_struct(Product)27_storage)dyn_storage"
					},
					{
						"astId": 35,
						"contract": "contracts/4_Auction.sol:Auction",
						"label": "refunds",
						"offset": 0,
						"slot": "2",
						"type": "t_mapping(t_address,t_uint256)"
					}
				],
				"types": {
					"t_address": {
						"encoding": "inplace",
						"label": "address",
						"numberOfBytes": "20"
					},
					"t_address_payable": {
						"encoding": "inplace",
						"label": "address payable",
						"numberOfBytes": "20"
					},
					"t_array(t_struct(Product)27_storage)dyn_storage": {
						"base": "t_struct(Product)27_storage",
						"encoding": "dynamic_array",
						"label": "struct Auction.Product[]",
						"numberOfBytes": "32"
					},
					"t_bool": {
						"encoding": "inplace",
						"label": "bool",
						"numberOfBytes": "1"
					},
					"t_mapping(t_address,t_uint256)": {
						"encoding": "mapping",
						"key": "t_address",
						"label": "mapping(address => uint256)",
						"numberOfBytes": "32",
						"value": "t_uint256"
					},
					"t_string_storage": {
						"encoding": "bytes",
						"label": "string",
						"numberOfBytes": "32"
					},
					"t_struct(Product)27_storage": {
						"encoding": "inplace",
						"label": "struct Auction.Product",
						"members": [
							{
								"astId": 6,
								"contract": "contracts/4_Auction.sol:Auction",
								"label": "id",
								"offset": 0,
								"slot": "0",
								"type": "t_uint256"
							},
							{
								"astId": 8,
								"contract": "contracts/4_Auction.sol:Auction",
								"label": "name",
								"offset": 0,
								"slot": "1",
								"type": "t_string_storage"
							},
							{
								"astId": 10,
								"contract": "contracts/4_Auction.sol:Auction",
								"label": "desc",
								"offset": 0,
								"slot": "2",
								"type": "t_string_storage"
							},
							{
								"astId": 12,
								"contract": "contracts/4_Auction.sol:Auction",
								"label": "startingPrice",
								"offset": 0,
								"slot": "3",
								"type": "t_uint256"
							},
							{
								"astId": 14,
								"contract": "contracts/4_Auction.sol:Auction",
								"label": "owner",
								"offset": 0,
								"slot": "4",
								"type": "t_address_payable"
							},
							{
								"astId": 16,
								"contract": "contracts/4_Auction.sol:Auction",
								"label": "bidPrice",
								"offset": 0,
								"slot": "5",
								"type": "t_uint256"
							},
							{
								"astId": 18,
								"contract": "contracts/4_Auction.sol:Auction",
								"label": "bidIncrement",
								"offset": 0,
								"slot": "6",
								"type": "t_uint256"
							},
							{
								"astId": 20,
								"contract": "contracts/4_Auction.sol:Auction",
								"label": "highestBidder",
								"offset": 0,
								"slot": "7",
								"type": "t_address_payable"
							},
							{
								"astId": 22,
								"contract": "contracts/4_Auction.sol:Auction",
								"label": "highestBid",
								"offset": 0,
								"slot": "8",
								"type": "t_uint256"
							},
							{
								"astId": 24,
								"contract": "contracts/4_Auction.sol:Auction",
								"label": "status",
								"offset": 0,
								"slot": "9",
								"type": "t_bool"
							},
							{
								"astId": 26,
								"contract": "contracts/4_Auction.sol:Auction",
								"label": "endTime",
								"offset": 0,
								"slot": "10",
								"type": "t_uint256"
							}
						],
						"numberOfBytes": "352"
					},
					"t_uint256": {
						"encoding": "inplace",
						"label": "uint256",
						"numberOfBytes": "32"
					}
				}
			},
			"userdoc": {
				"kind": "user",
				"methods": {},
				"version": 1
			}
		}
	}
}